:020000040000FA
:040000000DEF00F010
:020004000000FA
:0A00160023EF09F0730ED36E0F0EF6
:10002000C16E070EB46E3F0E926E806A936A946A38
:10003000948E948C956A200E9D6E190EAF6E000EF4
:10004000B06E260EAC6E900EAB6EAE50AE50F28E11
:10005000F28C3E6A2F909BEC08F036EC08F054ECE2
:1000600007F0320E5EEC0CF06B6B00016CEC00F0F4
:10007000ABB29FEC0BF082902A2A36EF00F0000121
:100080006BB145EF00F03FEF09F06B9143EC04F0EA
:100090003FEF09F0EA6A796B786BD894716B0A0EBE
:1000A000706F59EC08F07C0E7925E96E7651300FAF
:1000B000EF6E792B000E725DD8A44EEF00F07951EF
:1000C0007A6F7C0E7925E96EE906EF504EEC08F068
:1000D000792F61EF00F01200000180506A5DD8B402
:1000E000120080506A6FC80E7CEC08F0000E805C35
:1000F000D8B41200000E695DD8B49EEF00F0010E76
:10010000695DD8B4A5EF00F0020E695DD8B4ACEF1C
:1001100000F0030E695DD8B4B3EF00F0040E695D22
:10012000D8B4BEEF00F0050E695DD8B407EF01F05A
:10013000060E695DD8B40EEF01F0120080B096ECA7
:1001400006F080B229EC05F0120080B2A8EF00F0B2
:100150006B9154EC07F0120080B254EC07F080B4BD
:1001600029EC05F0120080B254EC07F080B6BAEF2B
:1001700000F012006B8336EC03F0120080B2D3EC77
:1001800000F080B0D8EF00F080BA03EF01F080B843
:10019000F5EC00F080B6FCEC00F080A6120080A820
:1001A0001200EEEF00F02FEC08F054EC07F0120014
:1001B000FF0E6C5DD8A4E4EF00F0FF0E6D5DD8A4D7
:1001C000E4EF00F0E9EF00F02FEC08F0EAEC01F0CA
:1001D00012002FEC08F015EC01F012006BA36C6B11
:1001E0006BB36D6B36EC03F012006BA36C2B6BB32F
:1001F0006D2B36EC03F012006BA36C076BB36D072D
:1002000036EC03F012006B7336EC03F0120080B290
:1002100054EC07F080B0EAEC01F0120080A212006A
:1002200028EC08F036EC03F01200060E0001696FAE
:1002300021EC08F0000E1BEC08F0200E4EEC08F04C
:10024000200E4EEC08F0200E4EEC08F0200E4EEC86
:1002500008F0530E4EEC08F0740E4EEC08F0610EF0
:100260004EEC08F06D0E4EEC08F0700E4EEC08F0FF
:10027000200E4EEC08F0610E4EEC08F0640E4EECD1
:1002800008F0640E4EEC08F0720E4EEC08F0650EAD
:100290004EEC08F0730E4EEC08F0730E4EEC08F0C6
:1002A000200E4EEC08F0200E4EEC08F0200E4EEC26
:1002B00008F0400E1BEC08F0460E4EEC08F0610E04
:1002C0004EEC08F0690E4EEC08F06C0E4EEC08F0A7
:1002D000650E4EEC08F0640E4EEC08F0200E4EEC6D
:1002E00008F0740E4EEC08F06F0E4EEC08F0200E85
:1002F0004EEC08F0730E4EEC08F0740E4EEC08F065
:10030000610E4EEC08F06D0E4EEC08F0700E4EECE7
:1003100008F0200E4EEC08F0200E4EEC08F0140E03
:100320001BEC08F0410E4EEC08F0640E4EEC08F0A9
:10033000720E4EEC08F0650E4EEC08F0730E4EECAB
:1003400008F0730E4EEC08F0200E4EEC08F0690E2B
:100350004EEC08F0730E4EEC08F0200E4EEC08F058
:10036000620E4EEC08F0720E4EEC08F06F0E4EEC82
:1003700008F0610E4EEC08F0640E4EEC08F0630ECF
:100380004EEC08F0610E4EEC08F0730E4EEC08F0E7
:10039000740E4EEC08F03F0E4EEC08F0540E1BECC1
:1003A00008F03C0E4EEC08F02D0E4EEC08F0200E3E
:1003B0004EEC08F0420E4EEC08F0610E4EEC08F0E8
:1003C000630E4EEC08F06B0E4EEC08F0200E4EEC77
:1003D00008F01200050E0001696F21EC08F0000E14
:1003E0001BEC08F0200E4EEC08F0200E4EEC08F04E
:1003F000200E4EEC08F0200E4EEC08F0530E4EECA2
:1004000008F0740E4EEC08F0610E4EEC08F06D0E24
:100410004EEC08F0700E4EEC08F0200E4EEC08F09A
:10042000610E4EEC08F0640E4EEC08F0640E4EECDB
:1004300008F0720E4EEC08F0650E4EEC08F0730EEC
:100440004EEC08F0730E4EEC08F0200E4EEC08F067
:10045000200E4EEC08F0200E4EEC08F0140E1BECB3
:1004600008F03C0E4EEC08F02D0E4EEC08F0200E7D
:100470004EEC08F0540E4EEC08F0720E4EEC08F004
:10048000790E4EEC08F0200E4EEC08F0610E4EECAA
:1004900008F0670E4EEC08F0610E4EEC08F0690EA5
:1004A0004EEC08F06E0E4EEC08F0540E1BEC08F00B
:1004B0003C0E4EEC08F02D0E4EEC08F0200E4EECEB
:1004C00008F0420E4EEC08F0610E4EEC08F0630EA0
:1004D0004EEC08F06B0E4EEC08F0200E4EEC08F0DF
:1004E000400E1BEC08F0530E4EEC08F0740E4EEC70
:1004F00008F0610E4EEC08F06D0E4EEC08F0700E38
:100500004EEC08F0690E4EEC08F06E0E4EEC08F062
:10051000670E4EEC08F0030E7A6F2D962D900C0EA0
:100520003C6E6E513F6E6F51406E3450416E35508F
:10053000426E030E436E000E446E030E456E010EB6
:10054000466E6C51476E6D51486E000E496EE8EC78
:100550000BF0C80E5EEC0CF02DB6F9EF02F0090EB0
:100560003C6E34503F6E3550406E3450416E3550C5
:10057000426E030E436E000E446E010E456E000E79
:10058000466EE8EC0BF0C80E5EEC0CF02DB0F9EF07
:1005900002F02E0E4EEC08F07A2F8FEF02F02D862F
:1005A0002D80400E1BEC08F04E0E4EEC08F06F0E46
:1005B0004EEC08F0200E4EEC08F0720E4EEC08F0F7
:1005C000650E4EEC08F0730E4EEC08F0700E4EEC1B
:1005D00008F06F0E4EEC08F06E0E4EEC08F0730E45
:1005E0004EEC08F0200E4EEC08F0200E4EEC08F019
:1005F0001200400E1BEC08F0410E4EEC08F0640EA9
:100600004EEC08F0720E4EEC08F0650E4EEC08F061
:10061000730E4EEC08F0730E4EEC08F0200E4EEC0C
:1006200008F0670E4EEC08F06F0E4EEC08F0740EFA
:100630004EEC08F0200E4EEC08F0730E4EEC08F075
:10064000740E4EEC08F0610E4EEC08F06D0E4EECA0
:1006500008F0700E4EEC08F0650E4EEC08F0640EDB
:100660004EEC08F0210E4EEC08F01200040E0001D2
:10067000696F21EC08F0000E1BEC08F0200E4EEC28
:1006800008F0200E4EEC08F0200E4EEC08F0200E84
:100690004EEC08F0430E4EEC08F0680E4EEC08F0FD
:1006A000610E4EEC08F06E0E4EEC08F0670E4EEC4C
:1006B00008F0650E4EEC08F0200E4EEC08F0610ECE
:1006C0004EEC08F0640E4EEC08F0720E4EEC08F0A2
:1006D000650E4EEC08F0730E4EEC08F0730E4EEC07
:1006E00008F0200E4EEC08F0200E4EEC08F0200E24
:1006F0004EEC08F0140E1BEC08F03C0E4EEC08F02B
:100700002D0E4EEC08F0200E4EEC08F0530E4EEC81
:1007100008F0740E4EEC08F0610E4EEC08F06D0E11
:100720004EEC08F0700E4EEC08F0200E4EEC08F087
:10073000200E4EEC08F0200E4EEC08F0200E4EEC91
:1007400008F0200E4EEC08F0200E4EEC08F0200EC3
:100750004EEC08F0550E4EEC08F0700E4EEC08F022
:10076000200E4EEC08F02D0E4EEC08F03E0E4EEC36
:1007700008F0540E1BEC08F03C0E4EEC08F02D0E69
:100780004EEC08F0200E4EEC08F0420E4EEC08F055
:10079000610E4EEC08F0630E4EEC08F06B0E4EEC62
:1007A00008F0200E4EEC08F0200E4EEC08F0200E63
:1007B0004EEC08F0200E4EEC08F0200E4EEC08F047
:1007C000200E4EEC08F0440E4EEC08F06F0E4EEC8E
:1007D00008F0770E4EEC08F06E0E4EEC08F0200E8E
:1007E0004EEC08F02D0E4EEC08F03E0E4EEC08F0EC
:1007F000400E1BEC08F0410E4EEC08F0640E4EEC7F
:1008000008F0720E4EEC08F0650E4EEC08F0730E18
:100810004EEC08F0730E4EEC08F03A0E4EEC08F079
:10082000200E4EEC08F0470E7B6F7A6B6C51726FA6
:10083000736B746B756B4AEC00F02E0E4EEC08F087
:100840007A517B276D51726F736B746B756B4AECC9
:1008500000F0500E1BEC08F0580E4EEC08F0200E85
:100860004EEC08F02D0E4EEC08F03E0E4EEC08F06B
:100870006BA33DEF04F07A297B277B511BEC08F03A
:1008800028EC08F01200030E0001696F21EC08F05B
:10089000000E1BEC08F0200E4EEC08F0430E4EEC60
:1008A00008F0680E4EEC08F0610E4EEC08F06E0E8B
:1008B0004EEC08F0670E4EEC08F0650E4EEC08F0BA
:1008C000200E4EEC08F0610E4EEC08F0640E4EEC7B
:1008D00008F0640E4EEC08F0720E4EEC08F0200E9C
:1008E0004EEC08F0610E4EEC08F0740E4EEC08F081
:1008F000200E4EEC08F0490E4EEC08F0410E4EEC86
:1009000008F0480E4EEC08F0200E4EEC08F0540EA5
:100910001BEC08F03C0E4EEC08F02D0E4EEC08F0EF
:10092000200E4EEC08F0420E4EEC08F0610E4EEC3C
:1009300008F0630E4EEC08F06B0E4EEC08F0200E43
:100940004EEC08F0200E4EEC08F0530E4EEC08F082
:10095000650E4EEC08F0740E4EEC08F0200E4EECD6
:1009600008F0610E4EEC08F0640E4EEC08F0640ED8
:100970004EEC08F0720E4EEC08F0200E4EEC08F033
:100980002D0E4EEC08F03E0E4EEC08F0400E1BEC27
:1009900008F0440E4EEC08F0650E4EEC08F0760EB2
:1009A0004EEC08F0690E4EEC08F0640E4EEC08F0C8
:1009B0003A0E4EEC08F0200E4EEC08F0726B736BA2
:1009C000746B756B720EEA6A00010A0E2E5C796F09
:1009D0007E6F7C6B7E075C0E7E25E96EEF507D6F2F
:1009E000720E7C25E96E7D51EF6E7C2B792FEAEF3C
:1009F00004F04AEC00F0140E1BEC08F0410E4EEC33
:100A000008F0640E4EEC08F0640E4EEC08F0720E26
:100A10004EEC08F03A0E4EEC08F0200E4EEC08F0CA
:100A200056506C6F6E6F726F736B746B756B4AECB4
:100A300000F02E0E4EEC08F057506D6F6F6F726F16
:100A4000736B746B756B4AEC00F0200E4EEC08F083
:100A50001200020E0001696F21EC08F0000E1BEC81
:100A600008F0200E4EEC08F0200E4EEC08F0540E6C
:100A70004EEC08F0650E4EEC08F0730E4EEC08F0EC
:100A8000740E4EEC08F0200E4EEC08F06C0E4EEC9E
:100A900008F0690E4EEC08F06E0E4EEC08F0650E94
:100AA0004EEC08F0200E4EEC08F0530E4EEC08F021
:100AB000650E4EEC08F0610E4EEC08F0720E4EEC36
:100AC00008F0630E4EEC08F0680E4EEC08F0200EB5
:100AD0004EEC08F0200E4EEC08F0400E1BEC08F037
:100AE0003C0E4EEC08F02D0E4EEC08F0200E4EECB5
:100AF00008F0540E4EEC08F0650E4EEC08F0730E44
:100B00004EEC08F0740E4EEC08F0200E4EEC08F09F
:100B1000610E4EEC08F0670E4EEC08F0610E4EECE4
:100B200008F0690E4EEC08F06E0E4EEC08F0200E48
:100B3000540E1BEC08F03C0E4EEC08F02D0E4EEC63
:100B400008F0200E4EEC08F0420E4EEC08F0610E5C
:100B50004EEC08F0630E4EEC08F06B0E4EEC08F015
:100B6000200E4EEC08F0200E4EEC08F0200E4EEC5D
:100B700008F0200E4EEC08F0200E4EEC08F0200E8F
:100B80004EEC08F0200E4EEC08F0200E4EEC08F073
:100B9000200E4EEC08F0200E4EEC08F0200E4EEC2D
:100BA00008F0200E4EEC08F0200E4EEC08F0140E6B
:100BB0001BEC08F0530E4EEC08F0650E4EEC08F0FE
:100BC000610E4EEC08F0720E4EEC08F0630E4EEC27
:100BD00008F0680E4EEC08F0690E4EEC08F06E0E50
:100BE0004EEC08F0670E4EEC08F02D882D80090EB3
:100BF0003C6EFF0E3F6EFF0E406E3450416E35501E
:100C0000426E030E436E010E446E010E456E000EE1
:100C1000466EE8EC0BF02E0E4EEC08F0FF0E5EEC8C
:100C20000CF02DA031EF06F02E0E4EEC08F0FF0E6A
:100C30005EEC0CF02DA031EF06F02E0E4EEC08F01D
:100C4000FF0E5EEC0CF02DA031EF06F02E0E4EECF8
:100C500008F0FF0E5EEC0CF02DA031EF06F05FEF18
:100C600006F0140E1BEC08F0530E4EEC08F0750E57
:100C70004EEC08F0630E4EEC08F0630E4EEC08F0FC
:100C8000650E4EEC08F0730E4EEC08F0730E4EEC51
:100C900008F0210E4EEC08F0200E4EEC08F0200E6D
:100CA0004EEC08F0200E4EEC08F0200E4EEC08F052
:100CB000200E4EEC08F0200E4EEC08F01200140E40
:100CC0001BEC08F04C0E4EEC08F0690E4EEC08F0F0
:100CD0006E0E4EEC08F0650E4EEC08F0200E4EEC59
:100CE00008F0730E4EEC08F0650E4EEC08F0650E41
:100CF0004EEC08F06D0E4EEC08F0730E4EEC08F062
:100D0000200E4EEC08F0620E4EEC08F0720E4EEC27
:100D100008F06F0E4EEC08F06B0E4EEC08F0650E0E
:100D20004EEC08F06E0E4EEC08F01200010E0001C1
:100D3000696F21EC08F0000E1BEC08F0200E4EEC61
:100D400008F0530E4EEC08F0650E4EEC08F0740EF1
:100D50004EEC08F0200E4EEC08F0610E4EEC08F060
:100D6000640E4EEC08F0640E4EEC08F0720E4EEC81
:100D700008F0200E4EEC08F0660E4EEC08F0720EF5
:100D80004EEC08F06F0E4EEC08F06D0E4EEC08F0D5
:100D9000200E4EEC08F0490E4EEC08F0410E4EECE1
:100DA00008F0480E4EEC08F0140E1BEC08F0570E3D
:100DB0004EEC08F0610E4EEC08F0690E4EEC08F0B7
:100DC000740E4EEC08F0690E4EEC08F06E0E4EEC10
:100DD00008F0670E4EEC08F0200E4EEC08F0660EA0
:100DE0004EEC08F06F0E4EEC08F0720E4EEC08F070
:100DF000200E4EEC08F0490E4EEC08F0410E4EEC81
:100E000008F0480E4EEC08F0200E4EEC08F0200ED4
:100E10004EEC08F0200E4EEC08F0200E4EEC08F0E0
:100E2000200E4EEC08F0540E1BEC08F03C0E4EEC7D
:100E300008F02D0E4EEC08F0200E4EEC08F0420E9D
:100E40004EEC08F0610E4EEC08F0630E4EEC08F02C
:100E50006B0E4EEC08F0200E4EEC08F0200E4EEC1F
:100E600008F0200E4EEC08F0200E4EEC08F0200E9C
:100E70004EEC08F0200E4EEC08F0200E4EEC08F080
:100E8000200E4EEC08F0200E4EEC08F0200E4EEC3A
:100E900008F0200E4EEC08F0200E4EEC08F0200E6C
:100EA0004EEC08F06B811200000E0001696F21EC1E
:100EB00008F0000E1BEC08F0200E4EEC08F0530E6C
:100EC0004EEC08F0700E4EEC08F0650E4EEC08F09B
:100ED000650E4EEC08F0640E4EEC08F0620E4EEC1F
:100EE00008F0750E4EEC08F0730E4EEC08F0200E74
:100EF0004EEC08F0700E4EEC08F06F0E4EEC08F061
:100F0000630E4EEC08F06B0E4EEC08F0650E4EECE6
:100F100008F0740E4EEC08F0200E4EEC08F0550E62
:100F20004EEC08F0490E4EEC08F0140E1BEC08F0E5
:100F30003C0E4EEC08F02D0E4EEC08F0200E4EEC60
:100F400008F0530E4EEC08F0650E4EEC08F0740EEF
:100F50004EEC08F0200E4EEC08F0610E4EEC08F05E
:100F6000640E4EEC08F0640E4EEC08F0720E4EEC7F
:100F700008F0200E4EEC08F0660E4EEC08F0720EF3
:100F80004EEC08F06F0E4EEC08F06D0E4EEC08F0D3
:100F9000200E4EEC08F0490E4EEC08F0410E4EECDF
:100FA00008F0480E4EEC08F0540E1BEC08F03C0E16
:100FB0004EEC08F02D0E4EEC08F0200E4EEC08F032
:100FC000540E4EEC08F0650E4EEC08F0730E4EEC2D
:100FD00008F0740E4EEC08F0200E4EEC08F06C0E8B
:100FE0004EEC08F0690E4EEC08F06E0E4EEC08F078
:100FF000650E4EEC08F0200E4EEC08F0530E4EEC51
:1010000008F0650E4EEC08F0610E4EEC08F0720E22
:101010004EEC08F0630E4EEC08F0680E4EEC08F053
:10102000200E4EEC08F012006C6F726B736B746BD9
:10103000756B726F1200206E208E20504BEC08F002
:101040001200010E4BEC08F0960E7CEC08F012003A
:101050000F0E4BEC08F0960E7CEC08F012000C0E14
:101060004BEC08F0960E7CEC08F01200826A836A62
:101070003F0E4BEC08F00C0E4BEC08F0010E4BEC65
:1010800008F0020E4BEC08F0060E4BEC08F0960E42
:101090007CEC08F0120082924FEF08F08282836E9F
:1010A00082800A0E7CEC08F082900B0E7CEC08F03B
:1010B0001200200E786F776B766BD890723773378B
:1010C0007437753776377737D8B071EF08F07151CC
:1010D000775DD8A46EEF08F07051765DD8A078EFF8
:1010E00008F07051765FD8A077077151775F7281F1
:1010F000782F5DEF08F01200226E8F0E206E020E28
:10110000216E202E83EF08F0212E81EF08F0222E91
:101110007DEF08F01200030E206E180E216E020EF5
:10112000226E202E91EF08F0212E91EF08F0222E52
:0611300091EF08F012002F
:0A1136000001379437920F018198F1
:1011400000012D922D9836B0FF0E0001345C0F0186
:10115000D8A4B7EF08F0FF0E0001355C0F01D8A44A
:10116000B7EF08F00001346A356AB8EC08F01200F5
:10117000030E2B6E0001090E3C6E34503F6E35504D
:10118000406EFF0E416EFF0E426E030E436E000E68
:10119000446E010E456E000E466EE8EC0BF0000149
:1011A0002D800A0E5EEC0CF000012DB0DAEF08F095
:1011B000E0EF08F000012B2EBAEF08F02D9012009E
:1011C000E3EC08F012000001000E346E000E356EE4
:1011D0000001353EF2EF08F0000E2C6E343EF2EFC7
:1011E00008F01200090E3C6E34503F6E3550406ED0
:1011F000FF0E416EFF0E426E030E436E000E446EF4
:10120000010E456E000E466EE8EC0BF000012D80DD
:10121000010E5EEC0CF000012DB011EF09F0E8EFCB
:1012200008F00001020E2B6EE8EC0BF000012D809F
:10123000010E5EEC0CF000012DA0E8EF08F02B2E63
:1012400014EF09F012000001378037A22EEF09F0E9
:101250000F019EBA4FEF09F03FEF09F00001246E35
:10126000D850D86A256EFA50266E2050276E21502D
:10127000286E2250296E0F019EBA4FEF09F000012F
:1012800037B210002750206E2850216E2950226E50
:101290002650FA6E2550D86E243A243810000001EA
:1012A0002DA260EF09F02D9230500F01AE5CD8A452
:1012B0005CEF09F03FEF09F000013E823FEF09F0DB
:1012C0000F017E0EAE5CD8B46CEF09F000012FB0B8
:1012D00076EF09F074EF09F000012FB0ABEF09F0E1
:1012E0002F802E6A3FEF09F03FEF09F00F017D0ECE
:1012F000AE5CD8B484EF09F000012DB488EF09F09A
:101300000F01AE509DEF09F000012D843FEF09F071
:1013100000012D945E0E0F01AE5CD8B497EF09F07A
:101320005D0EAE5CD8B49AEF09F03FEF09F07E0E87
:101330009DEF09F07D0E9DEF09F00001316E540E16
:101340002E240F01E16E000131500F01E76E000104
:101350002E2A3FEF09F0050E2E5CD8A09AEF0BF075
:1013600000012E042E6E3A6E540E0F01E16E000144
:10137000386A396AF5EC0BF00001540E2E240F0187
:10138000E16E0F01E7500001395CD8A49AEF0BF031
:101390000F01E104E16E0F01E7500001385CD8A4B1
:1013A0009AEF0BF000012F905A0E0F01E16E000131
:1013B00037B2DDEF09F0DEEF0AF00001540E0F0145
:1013C000E16E0F01E7500001345CD8A43FEF09F053
:1013D0000F01E128E16E0F01E7500001355CD8A450
:1013E0003FEF09F05A0E0F01E16E000E0F01E75CAE
:1013F000D8B4AAEF0AF0000137B23FEF09F0595014
:101400000108D8B487EC0AF05A0E0F01E16E010E04
:101410000F01E75CD8B4AEEF0AF0020EE75CD8B477
:1014200065EF0BF0030EE75CD8B419EF0AF03FEF5D
:1014300009F0090E00012E5CD8B45FEF0AF0D8B0B5
:1014400024EF0AF03FEF09F05B0E0F01E16E000E92
:101450000F01E75CD8B45FEF0AF0010EE75CD8B487
:1014600034EF0AF03FEF09F00C0E00012E5CD8A01B
:101470003FEF09F087EC0AF05C0E0F01E16EFF0E02
:101480000F01E75CD8A44FEF0AF00F01E12AFF0E2D
:101490000F01E75CD8A44FEF0AF03FEF09F05C0EB4
:1014A0000F01E16E0F01E7500001346E0F01E12AD8
:1014B0000F01E7500001356E36823FEF09F00C0E48
:1014C0005EEC0CF00B0E00013C6E560E0F01E16E4F
:1014D0000F01E75000013F6E570E0F01E16E0F0143
:1014E000E7500001406E3450416E3550426E030E9D
:1014F000436E000E446E030E456E000E466E360EB1
:10150000476E000E486EE8EC0BF03FEF09F0090E55
:101510005EEC0CF00001090E3C6E560E0F01E16E00
:101520000F01E75000013F6E570E0F01E16E0F01F2
:10153000E7500001406E3450416E3550426E030E4C
:10154000436E010E446E000E456E000E466EE8ECD2
:101550000BF0120000012D863FEF09F00C0E5EEC3F
:101560000CF000012DB0B7EF0AF0BAEF0AF02D90A1
:101570003FEF09F02DB83FEF09F0090E00013C6E76
:10158000560E0F01E16E0F01E75000013F6E570E3E
:101590000F01E16E0F01E7500001406E3450416EC3
:1015A0003550426E030E436E000E446E010E456EC2
:1015B000000E466EE8EC0BF03FEF09F00001540E10
:1015C0000F01E16EFF0E0F01E75CD8A4DDEF09F01B
:1015D0000F01E128E16EFF0E0F01E75CD8A4DDEFFB
:1015E00009F05A0E0F01E16E010E0F01E75CD8B44D
:1015F0000CEF0BF0030E0F01E75CD8A43FEF09F0EE
:101600000F01E12A010E0F01E75CD8A43FEF09F0BA
:101610003FEF00F03FEF09F0590E0F01E16E010EB0
:101620000F01E75CD8B41CEF0BF0000EE75CD8B4F8
:1016300087EC0AF03FEF09F040EC0CF06EEC0BF099
:1016400000010B0E3C6E32503F6E3350406E3450F2
:10165000416E3550426E030E436E010E446E010E14
:10166000456E400E466E2F0E476E000E486E010E00
:10167000595CD8B47DEF0BF0E8EC0BF03FEF09F0CC
:101680000C0E00013C6EFF0E3F6EFF0E406E34509C
:10169000416E3550426E030E436E000E446E030ED3
:1016A000456E010E466E400E476E2F0E486E000EC0
:1016B000496EE8EC0BF0120000012A50346E53EC36
:1016C0000CF000012A50356E1200020E0F01E126C7
:1016D0000F01E7500F01826E3FEF09F0560E0F0128
:1016E000E16E0F01E7500001326E570E0F01E16EFF
:1016F0000F01E7500001336E120000012D96378272
:101700002D920F01F28E0A0E00012B6EE8EC0BF009
:10171000FA0E5EEC0CF00F01ABB29FEC0BF0000187
:101720002DB696EF0BF02B2E86EF0BF02D96379201
:101730003FEF09F000012E502E6A3FEF09F00F0134
:10174000AB98AB88120000013E9253EC0CF0000104
:101750002A505EEC0CF013EF0CF000013D6E7E0E93
:101760003D5CD8B4DAEF0BF07D0E3D5CD8B4E1EF10
:101770000BF03D5000013D6E0F01ACA2BDEF0BF030
:101780000001020E206EFF0E002EC3EF0BF0202E84
:10179000C3EF0BF03D502D82306E0F01AD6E000196
:1017A000020E206EFF0E002ED2EF0BF0202ED2EF95
:1017B0000BF012007D0EBAEC0BF05E0EBAEC0BF0E3
:1017C00012007D0EBAEC0BF05D0EBAEC0BF01200BD
:1017D00000013C503A6E3F0E0F01E16E0001386A85
:1017E000396AF5EC0BF013EF0CF000013A2EFAEF2A
:1017F0000BF012000F01E750000139183B6EF00B9F
:101800003B3A3B1A3B50F00B3818396E3B343B34B3
:10181000391AE00B391A3B3A3B18386E0F01E128B0
:10182000E16EF5EF0BF00F0181887E0EBAEC0BF044
:1018300000013F0E0F01E16E00013C503A6E0001C5
:101840003A2E25EF0CF02DEF0CF00F01E750ADEC28
:101850000BF00F01E12A1FEF0CF000013850ADEC46
:101860000BF000013950ADEC0BF037EF0CF03EB24D
:10187000A3EF0BF07E0EBAEC0BF00F018198120073
:1018800053EC0CF000012A505EEC0CF053EC0CF021
:1018900000012A505EEC0CF053EC0CF000012A50D1
:1018A0005EEC0CF0120000012A342A342AB8010A36
:1018B0002ABA010A2AB6010A2A6E000C0001226E19
:1018C000FF0E216E320E206E202E64EF0CF0140EEF
:1018D000206E212E64EF0CF0640E216E222E64EF38
:0418E0000CF01200F6
:020000040030CA
:010001000BF3
:0100020018E5
:010003001EDE
:0100050001F9
:010006008178
:00000001FF
