:020000040000FA
:020000000528D1
:040002000034003492
:080008009E2B830183120313F8
:100010008B130A28831203179E011E1583120317E0
:100020009F018316031360309F0083160313703003
:100030008F000F1D192883160313FF3085008601DA
:1000400087018316031320308C0083160313673057
:1000500099008316031300309A00831603139B152F
:1000600083160313243098008312031390309800F2
:100070001A081A0883160313B401831203138B178B
:100080000B175D23831203130710871707178312BB
:1000900003132810A8103710B710831203139818F1
:1000A000B22683160313A40A8312031337185D289C
:1000B00083120313B71864284D2883120313051AFB
:1000C0000617051E0613582883120313051E7E28E3
:1000D00028195C28281583120313871619307C27EA
:1000E00083120313871219307C2783120313871698
:1000F00019307C278312031387125C2828115C288F
:100100007726D13084000030831300020319CC28F5
:100110000030831300020319CC280130831300023E
:100120000319F42802308313000203191C29033039
:10013000831300020319AC2804308313000203194F
:10014000BC280530831300020319C428063083132A
:1001500000020319B428BA2B831603130A302602AF
:10016000031967295729BA2B831603130A3026026D
:100170000319152A052ABA2B831603130A302602FF
:100180000319A1299129BA2B831603130A302602D9
:100190000319DB29CB29BA2B3F22B4228316031380
:1001A0000C30B2002908B5002A08B6002B08B700A9
:1001B0002C08B8000330B9000030BA000430BB008E
:1001C000003083160313BC00831203133308831615
:1001D0000313BD0083120313340883160313BE00F8
:1001E0000030BF00F326BA2B3F22B422831603133C
:1001F0000C30B2002908B5002A08B6002B08B70059
:100200002C08B8000330B9000030BA000430BB003D
:10021000013083160313BC008312031335088316C1
:100220000313BD0083120313360883160313BE00A5
:100230000030BF00F326BA2B8316031370309F00E3
:100240008312031702309E00831203138B309F002A
:100250005823582358235823831203139F182E29F9
:100260009F13831603130C30B2002908B5002A0827
:10027000B6002B08B7002C08B8000330B9000030D6
:10028000BA000430BB00023083160313BC00831293
:1002900003131E0883160313BD00831603131E08E1
:1002A00083160313BE000030BF00F326BA2BD230F2
:1002B00084008316031300185F29001C632983122E
:1002C000031306176729831203130613672983167E
:1002D00003130B30B2002908B5002A08B6002B081A
:1002E000B7002C08B8000330B9000030BA00043061
:1002F000BB00033083160313BC0083120313061BD9
:100300008329061F8829013083160313BD008D2918
:10031000003083160313BD008D290030BE00F32684
:10032000BA2BD23084008316031300189929001CBD
:100330009D29831203133714A12983120313371045
:10034000A129831603130B30B2002908B5002A082F
:10035000B6002B08B7002C08B8000330B9000030F5
:10036000BA000430BB00043083160313BC008312B0
:1003700003133718BD29371CC22901308316031314
:10038000BD00C729003083160313BD00C729003004
:10039000BE00F326BA2BD230840083160313001854
:1003A000D329001CD72983120313B714DB29831226
:1003B0000313B710DB29831603130B30B20029088F
:1003C000B5002A08B6002B08B7002C08B800033087
:1003D000B9000030BA000430BB00053083160313A7
:1003E000BC0083120313B718F729B71CFC2901308E
:1003F00083160313BD00012A003083160313BD00CA
:10040000012A0030BE00F326BA2BD23084008316B6
:10041000031300180D2A001C112A831203138716D8
:10042000152A831203138712152A831603130B3020
:10043000B2002908B5002A08B6002B08B7002C081E
:10044000B8000330B9000030BA000430BB000630F9
:1004500083160313BC0083120313871A312A871EE5
:10046000362A013083160313BD003B2A0030831661
:100470000313BD003B2A0030BE00F326BA2B273001
:1004800084008316031305108312031305105823E9
:100490005823582358238316031305145823A622E0
:1004A000A122A622053083120313A2005823051CA3
:1004B000801305188017A122A6225823051C0013BB
:1004C00005180017A122A6225823051C8012051822
:1004D0008016A122A6225823051C0012051800161A
:1004E000A122A6225823051C801105188015A122DF
:1004F000A6225823051C001105180015A122A622CA
:100500005823051C801005188014A122A622582308
:10051000051C001005180014A122A6228403A20BBA
:10052000562A83120313A9012708A9072608A90739
:100530002508A9072408A90723082902031DA02AC2
:100540000800831203130518A12A0800831203135D
:100550002830A100532383120313051808008312C7
:100560000313A10BAA2A080083120313AF01B001E1
:10057000B101B201AB010A30AA002708B000260879
:10058000AF0017232F08B5002C08B600AB010A30C6
:10059000AA00B101B2012508B000B0132408AF00D1
:1005A0001723A51BD82A2F08B3002C08B400080075
:1005B000FF30A0002F082002B3002C08B400080070
:1005C000831603130D30B2001430B5001430B6009A
:1005D0002B08B7002C08B8000330B9000030BA006F
:1005E0000A30BB0083120313270883160313BC00D1
:1005F00083120313260883160313BD00831203130B
:100600002F0883160313BE00831203132C088316CE
:100610000313BF000030C000F32608000A30831324
:1006200000020319142BBA2B3F22E022BA2B2030F0
:10063000AE00AD01AC010310AF0DB00DB10DB20DA8
:10064000AC0DAD0D03182C2B2B082D02031D2A2BEE
:100650002A082C02031C332B2A08AC02031CAD030E
:100660002B08AD022F14AE0B1B2B080003178D00B7
:1006700083168C130C1483120C0803130800031741
:100680008C000313270803178D0083168C130C1599
:1006900055308D00AA308D008C148C184D2B0C1108
:1006A0008312031308000630A000A00B552B08008E
:0A06B0002130A000A00B5A2B080017
:0606BA0083120313751109
:1006C000F51083120313061283160313A5102512C7
:1006D000A51283160313B4100030362383160313B8
:1006E000AB000130362383160313AC0002303623EF
:1006F00083160313AD00FF30831603132B02031D73
:100700000800FF30831603132C02031D0800831614
:100710000313AB0183160313AC01003083160313DC
:10072000A700831603132B083F23831603130130FE
:10073000A700831603132C083F2308007514F51C2B
:10074000A62B831203138C1ACC2BBA2BF0000308B0
:100750008301F100831603132008F20083160313AC
:100760002108F300831603132208F40083120313F5
:100770008C1ACC2BF5180900720883160313A000FD
:10078000730883160313A100740883160313A200D1
:10079000710883007008090083160313A51CDE2B63
:1007A000A510831603132708831203131A02031DCF
:1007B000DA2BBA2B83160313B414BA2B8312031348
:1007C0007E301A020319E92B83160313A51AF22BA4
:1007D000BA2B83160313A51A272CA5168316031309
:1007E000A601BA2B831203137D301A020319002CC1
:1007F000831603132519042C831203131A08162CCD
:10080000831603132515BA2B8316031325115E30A7
:10081000831203131A020319122C5D301A020319F2
:10082000142CBA2B7E30162C7D30162C8316031315
:10083000A800CA3083160313260784008316031307
:1008400028088313800083160313A60ABA2B0530E9
:10085000831603132602031CA62E831603132603F6
:10086000A60083160313B000CA308312031384005A
:1008700083160313AE0183160313AF010627CA3094
:1008800083160313260784008313000883160313BB
:100890002F02031DA62E0403840083130008831671
:1008A00003132E02031DA62E83160313A512D030A8
:1008B00083120313840083120313F518602C772D21
:1008C00083160313CA3084008313000883160313AE
:1008D0002B02031DBA2B040A84008313000883161D
:1008E00003132C02031DBA2BD03084000030831375
:1008F00000020319482D83120313F518BA2B83162F
:1009000003134F08013C03192625D0308400013021
:100910008313000203194C2D0230831300020319C4
:100920006F2E043083130002031980280E2BBA2B7C
:100930000D308316031326020319F42C0318A12C7F
:10094000BA2BD53084000030831300020319F42C35
:100950000130831300020319AE2CBA2B103083161A
:1009600003132602031CBA2BD6308400FF308313F6
:100970000002031DC42C83120313840AFF30831367
:100980000002031DC42CBA2BD63084008313000848
:1009900083160313AB00840A831300088316031322
:1009A000AC0083160313AD14003083160313A700A5
:1009B000831603132B083F2383160313013083167A
:1009C0000313A700831603132C083F238316031376
:1009D000023083160313A700831603132D083F2349
:1009E0000C307C270826BA2B0C307C270B30831662
:1009F0000313B200CC308400831300088316031362
:100A0000B500CD3084008313000883160313B600AD
:100A1000831603132B0883160313B70083160313DF
:100A20002C0883160313B8000330B9000030BA0055
:100A30000330BB000030BC00831603132D0883165F
:100A40000313BD000030BE00F326BA2B09307C270B
:100A5000093083160313B200CC30840083130008DE
:100A600083160313B500CD3084008313000883166A
:100A70000313B6002B08B7002C08B8000330B900E8
:100A80000030BA000030BB000030BC00F326080084
:100A900083160313A515BA2B0C307C27831603137A
:100AA0002518532D552D2510BA2B251ABA2B093090
:100AB00083160313B200CC3084008313000883161E
:100AC0000313B500CD30840083130008831603138D
:100AD000B6002B08B7002C08B8000330B90000306E
:100AE000BA000130BB000030BC00F326BA2B8316DD
:100AF0000313CA308400FF30831603130002031D62
:100B0000602C840AFF30831603130002031D602C3F
:100B1000D03084000C308316031326020318962D60
:100B20000130831300020319C32DBA2BD130840086
:100B3000831300300002031DBA2BD23084008313CC
:100B400000300002031DBA2BD33084008313003021
:100B50000002031DBA2BD43084008313C830000276
:100B6000031DBA2BD0308400831301300002031917
:100B7000BF2D8313033000020319982CBA2B0C30BD
:100B80007C270826BA2BCF30840001308313000263
:100B90000319D02D00308313000203192625BA2B28
:100BA00060270C307C2777260D3083160313B200A4
:100BB00083160313290883160313B5008316031342
:100BC0002A0883160313B600831603132B08831613
:100BD0000313B700831603132C0883160313B800FE
:100BE0000330B9000130BA000130BB000030BC0056
:100BF0000030BD000030BE00C830BF000030C00073
:100C00000130831603134F020319862EF326BA2BE5
:100C100077260D3083160313B200831603132908B9
:100C200083160313B500831603132A0883160313D0
:100C3000B600831603132B0883160313B70083161D
:100C400003132C0883160313B8000330B9000030D7
:100C5000BA000130BB000030BC000030BD000030E5
:100C6000BE00C830BF000030C000F32608000E30C0
:100C700083160313B20083160313FF30B500FF3051
:100C8000B600831603132B0883160313B7008316CD
:100C900003132C0883160313B8000330B900003087
:100CA000BA000330BB000130BC000030BD00003092
:100CB000BE000030BF00C830C0000030C100F326C5
:100CC000080083160313240883160313AB00702750
:100CD00083160313240883160313AC0008000230A4
:100CE000840783130008831203138700BA2BCC30C8
:100CF00084008313000883160313A900CD308400F9
:100D00008313000883160313AA0008008316031335
:100D1000A511A510F514831203138B170A3083163F
:100D20000313A900F326FA307C27831203139818C3
:100D3000B22683160313A519A12E83160313A90B3C
:100D4000922E83160313A511F510BA2B05308316C6
:100D500003132602031CAE2EFA307C2783160313DE
:100D6000A601BA2B83120313181218160800831653
:100D70000313A51083160313B410702783160313EF
:100D800024087C27302F83160313B3007E303302F0
:100D90000319E92E7D3033020319EE2E3308831632
:100DA0000313B30083160313A51483160313330828
:100DB00083160313A70083120313990083160313EA
:100DC000981CE02E831603139030A000A00BE62E93
:100DD00008007D30CF265E30CF2608007D30CF263C
:100DE0005D30CF26080083160313320883160313E1
:100DF000B00083160313A514B530840083160313C3
:100E0000AE0183160313AF010627302F8316031399
:100E1000B00B0B2F080083130008831603132F0653
:100E200083160313B100F039B10EB1063108F03961
:100E3000831603132E0683160313AF0083160313C2
:100E4000310D310D83160313AF06E039AF0683165B
:100E50000313B10E310683160313AE00840A062F66
:100E600083120313061683160313A5147E30CF26B0
:100E7000B530840083160313320883160313B000C1
:100E800083160313B00B452F4A2F83130008C32684
:100E9000840A402F831603132E08C32683160313D8
:100EA0002F08C326532F7E30CF2683160313B41882
:100EB000B72E83160313A51083120313061208001E
:100EC00070278316031324087C27702783160313C7
:100ED00024087C2770278316031324087C27080026
:100EE00083160313240D240D241A013AA41A013A7F
:100EF000A419013AA400003483160313A200FF30A2
:100F0000A1003230A000A00B832F1430A000A10B51
:0C0F1000832F6430A100A20B832F080087
:02400E00D430AC
:00000001FF
