:020000040000FA
:020000000528D1
:040002000034003492
:08000800AF28830183120313EA
:100010008B138316031370308F000F1D0D2883126E
:1000200003179E01831203179F0183160313603089
:100030009F0083160313FF30850086018701831616
:10004000031320308C008316031367309900831646
:10005000031300309A00831603139B1583160313B2
:100060002430980083120313903098001A081A085D
:10007000831203138B170B176E2083120313981828
:10008000BD2383160313A40A3D28831203178D0092
:10009000831603178C130C14831203170C08831296
:1000A00003130800831203178C0083160313270819
:1000B000831203178D00831603178C130C1555300C
:1000C000831603178D00AA308D00831603178C1436
:0C00D0008C1868280C1183120313080020
:0400DC008312031375
:1000E0007511F51083120313061283160313A5105E
:1000F0002512A51283160313B41000304520831671
:100100000313AB000130452083160313AC0002300B
:10011000452083160313AD00FF30831603132B0213
:10012000031D0800FF30831603132C02031D080073
:1001300083160313AB0183160313AC01003083163F
:100140000313A700831603132B08522083160313EF
:100150000130A700831603132C08522008007514E1
:10016000F51CB728831203138C1ADD28CB28F00066
:1001700003088301F100831603132008F20083169D
:1001800003132108F300831603132208F4008312DB
:1001900003138C1ADD28F51809007208831603135F
:1001A000A000730883160313A100740883160313B9
:1001B000A200710883007008090083160313A51CB0
:1001C000EF28A510831603132708831203131A02BE
:1001D000031DEB28CB2883160313B414CB288312FA
:1001E00003137E301A020319FA2883160313A51A83
:1001F0000329CB2883160313A51A3829A5168316BD
:100200000313A601CB28831203137D301A020319AE
:1002100011298316031325191529831203131A08AC
:100220002729831603132515CB28831603132511BD
:100230005E30831203131A02031923295D301A0258
:1002400003192529CB287E3027297D3027298316BD
:100250000313A800CA3083160313260784008316ED
:10026000031328088313800083160313A60ACB28E0
:100270000530831603132602031CB12B83160313C8
:100280002603A60083160313B000CA30831203139B
:10029000840083160313AE0183160313AF011124E8
:1002A000CA308316031326078400831300088316BD
:1002B00003132F02031DB12B0403840083130008D2
:1002C000831603132E02031DB12B83160313A512ED
:1002D000D03083120313840083120313F51871299D
:1002E000822A83160313CA308400831300088316FE
:1002F00003132B02031DCB28040A84008313000878
:10030000831603132C02031DCB28D0308400003049
:10031000831300020319532A83120313F518CB2801
:10032000831603134F08013C03193122D030840097
:100330000130831300020319572A0230831300028D
:1003400003197A2BCB280D308316031326020319C9
:10035000FF290318AC29CB28D53084000030831343
:1003600000020319FF290130831300020319B92980
:10037000CB281030831603132602031CCB28D6305B
:100380008400FF3083130002031DCF29831203135F
:10039000840AFF3083130002031DCF29CB28D630F7
:1003A00084008313000883160313AB00840A8313AD
:1003B000000883160313AC0083160313AD1400303A
:1003C00083160313A700831603132B0852208316EA
:1003D0000313013083160313A700831603132C089D
:1003E000522083160313023083160313A7008316CB
:1003F00003132D0852200C3087241323CB280C30F4
:1004000087240B3083160313B200CC30840083138F
:10041000000883160313B500CD3084008313000851
:1004200083160313B600831603132B0883160313D6
:10043000B700831603132C0883160313B800033088
:10044000B9000030BA000330BB000030BC00831696
:1004500003132D0883160313BD000030BE00FE23D6
:10046000CB2809308724093083160313B200CC301F
:1004700084008313000883160313B500CD30840075
:100480008313000883160313B6002B08B7002C084B
:10049000B8000330B9000030BA000030BB000030B3
:1004A000BC00FE23080083160313A515CB280C30CF
:1004B00087248316031325185E2A602A2510CB286B
:1004C000251ACB28093083160313B200CC308400E0
:1004D0008313000883160313B500CD308400831303
:1004E000000883160313B6002B08B7002C08B800C9
:1004F0000330B9000030BA000130BB000030BC004E
:10050000FE23CB2883160313CA308400FF308316E2
:1005100003130002031D7129840AFF30831603139D
:100520000002031D7129D03084000C3083160313A0
:1005300026020318A12A0130831300020319CE2AD0
:10054000CB28D1308400831300300002031DCB2858
:10055000D2308400831300300002031DCB28D33037
:100560008400831340300002031DCB28D430840064
:10057000831333300002031DCB28D0308400831353
:10058000013000020319CA2A831303300002031941
:10059000A329CB280C3087241323CB28CF30840009
:1005A0000130831300020319DB2A00308313000299
:1005B00003193122CB286B240C30872482230D3081
:1005C00083160313B200831603132908831603133B
:1005D000B500831603132A0883160313B600831687
:1005E00003132B0883160313B700831603132C0879
:1005F00083160313B8000330B9000130BA0001308C
:10060000BB000030BC000030BD004030BE003330C5
:10061000BF000030C0000130831603134F020319DE
:10062000912BFE23CB2882230D3083160313B200B7
:1006300083160313290883160313B50083160313C7
:100640002A0883160313B600831603132B08831698
:100650000313B700831603132C0883160313B80083
:100660000330B9000030BA000130BB000030BC00DC
:100670000030BD004030BE003330BF000030C0004D
:10068000FE2308000E3083160313B20083160313F3
:10069000FF30B500FF30B600831603132B08831616
:1006A0000313B700831603132C0883160313B80033
:1006B0000330B9000030BA000330BB000130BC0089
:1006C0000030BD000030BE004030BF003330C000FD
:1006D0000030C100FE23080083160313240883168C
:1006E0000313AB007B248316031324088316031320
:1006F000AC00080002308407831300088312031340
:100700008700CB28CC3084008313000883160313A2
:10071000A900CD3084008313000883160313AA00B8
:10072000080083160313A511A510F51483120313F3
:100730008B170A3083160313A900FE23FA3087248F
:10074000831203139818BD2383160313A519AC2B2A
:1007500083160313A90B9D2B83160313A511F51004
:10076000CB280530831603132602031CB92BFA305D
:10077000872483160313A601CB28831203131812B0
:100780001816080083160313A51083160313B4105C
:100790007B2483160313240887243B2C831603131E
:1007A000B3007E3033020319F42B7D30330203197A
:1007B000F92B330883160313B30083160313A51410
:1007C00083160313330883160313A700831203133E
:1007D000990083160313981CEB2B83160313903098
:1007E000A000A00BF12B08007D30DA235E30DA2365
:1007F00008007D30DA235D30DA2308008316031306
:10080000320883160313B00083160313A514B53002
:10081000840083160313AE0183160313AF01112462
:100820003B2C83160313B00B162C0800831300080F
:10083000831603132F0683160313B100F039B10E8C
:10084000B1063108F039831603132E0683160313FD
:10085000AF0083160313310D310D83160313AF065A
:10086000E039AF0683160313B10E31068316031366
:10087000AE00840A112C8312031306168316031389
:10088000A5147E30DA23B5308400831603133208B2
:1008900083160313B00083160313B00B502C552C92
:1008A00083130008CE23840A4B2C831603132E08CF
:1008B000CE23831603132F08CE235E2C7E30DA233B
:1008C00083160313B418C22B83160313A5108312C7
:1008D0000313061208007B248316031324088724BD
:1008E0007B2483160313240887247B248316031395
:1008F00024088724080083160313240D240D241ACA
:10090000013AA41A013AA419013AA400003483164A
:100910000313A200FF30A1003230A000A00B8E2CE8
:100920001430A000A10B8E2C6430A100A20B8E2CE1
:020930000800BD
:02400E00D430AC
:00000001FF
