:020000040000FA
:020000000528D1
:040002000034003492
:08000800AA2A673023009B00C7
:10001000003023009C0023009F019F152430230003
:100020009E00230090309D00210073309900210034
:100030009101911620008B170B17200099132000B7
:1000400096012000970120003530980020000530EF
:10005000FC0022009D171D1521001D142100E03019
:100060009E0024008C0123008C018C1420008C0144
:1000700022008C01210032308C0020008C010C14F5
:100080005B202722200011186C2023009D18D32408
:100090002000003068020319562820000C142000AC
:1000A0006808AB21FF3068020319422820000C10B9
:1000B0001930AB2142280A300B222000E8000B3017
:1000C0000B222000FD000C300B222000FE000D3022
:1000D0000B222000FF000800200011102000FC0B64
:1000E000080078302000FC00762008000B2120005A
:1000F00078087D02031C84287D2820007A087D0270
:10010000031C8B28B228080020007A087D020318FF
:100110009928B228080020007F18080080307D024E
:100120000319080000307E020319A7287E08E800A2
:10013000080020007F18080080307D0203190800A5
:1001400000307E020319A7287E08E800080020007E
:100150007F18080080307D02031908002000FF305E
:10016000E80008007F18080000302000E8000800C0
:100170000B210F302000BC005630200086002000EC
:1001800001082000BF005730200086002000010831
:100190002000C0003408C1003508C2000330C3008D
:1001A0000030C4000B30C5000030C6007808C7001E
:1001B0007908C8000130C9007A08CA007B08CB0062
:1001C0000030CC00FF24C22A0D302000BC00563085
:1001D00020008600200001082000BF0057302000CA
:1001E0008600200001082000C0003408C100350846
:1001F000C2000330C3000030C4000E30C5006808E0
:10020000C6007D08C7007E08C8007F08C90000300E
:10021000CA00FF24C22A21000C1523000C1521005E
:1002200009309D000130642521009D149D18162978
:1002300023000C1121000C1121001C082000F500E6
:1002400021001B082000F400B521F8000430F8025A
:10025000C221F90021009D01210005309D000130DF
:10026000642521009D149D18332921001C082000BD
:10027000F50021001B082000F40021009D01200052
:10028000B521FA00C221FB0008000A30010203195F
:100290005A290B3001020319B8280C300102031946
:1002A00074290D30010203198D290E300102031942
:1002B000E428C22A20005B302000860020000108CC
:1002C0002000E8000A30B0006808132220007F14E4
:1002D0000030680203197F100319762020000D30CA
:1002E000B0007F081322C22A20005B302000860065
:1002F000200001082000FD008030FD070B30B00019
:100300007D0813227F18C22A200080307D02031945
:10031000E8010319C22A7620C22A20005B3020009F
:100320008600200001082000FE000C30B0007E088E
:10033000132220007F18C22A003068020319C22A43
:1003400000307E020319A529A829FF30E800C22A3F
:100350007E08E800C22A2000A000A100A00BB1295D
:10036000A10BAE29B329000008000130F700E830E6
:10037000F600D6210330EC00E830EB00EC214E30E3
:10038000700708002000F301F2016E08F1006D080B
:10039000F0002000EC010A30EB000030710203197C
:1003A000D329EC21C929200070080800F301F201CB
:1003B000F101F001F117F50CF40C031CE5297608A6
:1003C000F20777080318770FF307F30CF20CF10C20
:1003D000F00C031CDB2908002030EF00EE01ED01DA
:1003E0000310F00DF10DF20DF30DED0DEE0D0318F0
:1003F000012A6C086E02031DFF296B086D02031CA5
:10040000082A6B08ED02031CEE036C08EE02701460
:10041000EF0BF029080023009201910015139513AA
:1004200015141308080023009300940120003008DD
:100430002300920191001513951315155530960060
:0E044000AA30960095149518232A151108006D
:02044E0020008C
:100450003711B71020000C112000AD102D12BE1066
:1004600000300B222000B40001300B222000B50028
:1004700002300B222000B60036184D22FF3020003B
:100480003402031D4C2AFF3020003502031D4C2A84
:100490002000B401B5014D220800AD10033020004A
:1004A000AB0020000930BC003408BF003508C00094
:1004B000FF30C100FF30C2000330C3000030C40071
:1004C0000130C5000030C600FF2420002D140A3082
:1004D000642520002D186D2A722A2000AB0B512AAA
:1004E0002D1008007422080020000030B4000030F5
:1004F000B5002000B50F812A0030AC00B40F812A6E
:1005000008000930BC003408BF003508C000FF30C7
:10051000C100FF30C2000330C3000030C40001300E
:10052000C5000030C600FF2420002D1401306425D2
:1005300020002D189C2A792A20000230AB00FF24CD
:1005400020002D140130642520002D1C792AAB0BCE
:100550009F2A080020003714B71CB22A2000911AE5
:10056000D22AC22A2000A40003088301A5000A0899
:10057000A6002008A7002108A8002208A900200042
:10058000911AD22A2000B71809002708A0002808CD
:10059000A1002908A20026088A0025088300A40ECD
:1005A000240E09002000AD1CDF2AAD103008230006
:1005B0001902031DDC2AC22A2000BE14C22A23000D
:1005C0007E3019020319E82A20002F18EF2AEE2A9C
:1005D00020002F181A2B2F14AE01C22AC22A230082
:1005E0007D3019020319FA2A20002D19FD2A230053
:1005F00019080D2B20002D15C22A20002D115E3068
:10060000230019020319092B5D30190203190B2B62
:10061000C22A7E300D2B7D300D2B2000B1005430CE
:100620002E072000860020003108200081002000D5
:10063000AE0AC22A05302E02031CC92C20002E034C
:10064000AE00BA005430200086002000B801B90185
:100650000A25200054302E072000860020000108C3
:1006600020003902031DC92C20000603860020004B
:10067000010820003802031DC92C20002F105A3019
:10068000200086002000B718462B342C2000543060
:10069000200086002000010820003402031DC22A29
:1006A0002000060A86002000010820003502031DF4
:1006B000C22A5A30200086000030200001020319AF
:1006C000082C2000B718C22A5908013C0319E72357
:1006D0005A302000860001302000010203190B2C43
:1006E0000230010203199D2C0330010203197A2BF9
:1006F0004529C22A093020002E020319C22B0318F3
:10070000822BC22A5B3020008600003020000102CC
:100710000319C22B0130010203198F2BC22A0C309E
:1007200020002E02031CC22AE7235C302000860032
:10073000FF3020000102031DA52B2000860AFF3098
:1007400020000102031DA52BC22A5C302000860078
:10075000200001082000B4002000860A20000108C3
:100760002000B500B6140030B00034081322200079
:100770000130B0003508132220000230B0003608E6
:100780001322C22A0C3064250B302000BC005630E6
:1007900020008600200001082000BF005730200004
:1007A0008600200001082000C0003408C100350880
:1007B000C2000330C3000030C4000330C500003065
:1007C000C6003630C7000030C800FF24C22A0930F6
:1007D000642520000930BC0056302000860020002F
:1007E00001082000BF0057302000860020000108CB
:1007F0002000C0003408C1003508C2000330C30027
:100800000130C4000030C5000030C600FF240800DD
:100810002000AD15C22A0C30642520002D18112CA3
:10082000132C2D10C22A2D1AC22A09302000BC0018
:10083000563020008600200001082000BF005730FD
:1008400020008600200001082000C0003408C100FC
:100850003508C2000330C3000030C4000130C500B9
:100860000030C600FF24C22A200054302000860039
:10087000FF3020000102031D462B2000060A8600DF
:10088000FF3020000102031D462B5A302000860055
:1008900001302000010203194E2CC22A59302000D9
:1008A000860001302000010203195B2C0030010298
:1008B0000319E723C22A4C25A32420000B30BC00D7
:1008C0003208BF003308C0003408C1003508C20038
:1008D0000330C3000130C4000130C5004030C60001
:1008E0002D30C7000030C800013059020319B22C66
:1008F000FF24C22A0C302000BC00FF30BF00FF30B4
:10090000C0003408C1003508C2000330C300003005
:10091000C4000330C5000130C6004030C7002D3090
:10092000C8000030C900FF24080020002A08B400D5
:10093000592520002A08B50008000230200086074B
:1009400020000108C22A563020008600200001083D
:100950002000B2005730200086002000010820004F
:10096000B30008002000AD11B714AD1020008B17A4
:100970000A302000AB00FF24FA30642523009D18C4
:10098000D3242000AD19C62CAB0BBB2CAD11B71076
:10099000C22A200005302E02031CD02CFA30642518
:1009A0002000AE01C22A23001D121D1608002000DF
:1009B000BE10592520002A086425262D2000BD00E0
:1009C0007E303D020319F52C7D303D020319FA2CCF
:1009D0003D082000BD0023009E1CEC2C20003D089B
:1009E000AD14B00023009A0008007D30E9245E3089
:1009F000E92408007D30E9245D30E9240800200066
:100A00003C08BA003F30200086002000B801B90140
:100A10000A25262D2000BA0B0E2D08002000010803
:100A200020003906BB00F039BB0EBB063B08F0398D
:100A30003806B9003B0D3B0DB906E039B906BB0ECF
:100A40003B06B8002000060A86000A2D20000C157F
:100A50007E30E92420003F302000860020003C0842
:100A6000BA002000BA0B352D3B2D20000108DE24F2
:100A70002000860A312D20003808DE2420003908A5
:100A8000DE24422D7E30E924BE18D72C23009E1C84
:100A9000472D20000C110800592520002A08642544
:100AA000592520002A086425592520002A08642594
:100AB000080020002A0D2A0D2A1A013AAA1A013A22
:100AC000AA19013AAA0000342000A200FF30A100B8
:100AD0003230A000A00B6A2D1430A000A10B6A2DAB
:0A0AE0006430A100A20B6A2D08008B
:020000040001F9
:02000E00A4C983
:02001000FFDC13
:00000001FF
