:020000040000FA
:020000000528D1
:040002000034003492
:08000800BC280714830108283D
:1000100003179E019F011E160313831670309F0065
:1000200070308F000F1D1228FF3085008601870178
:10003000071420308C006730990000309A009B151F
:10004000243098008312903098001A081A088B17F1
:100050000B17BB012F100E30E800860191309F0076
:1000600066209818A0210710AA0A31280A30000239
:10007000AA00031CCA2802302A020318CA282A0828
:10008000820744286528CA2815229F149F184628ED
:10009000583084000B30B900FF30BC00FF30BD0089
:1000A0003208BE003308BF000330C0000130C10079
:1000B0000230C20083161E088312C3001E08C4004B
:0C00C0000030C5003B14CC21CA28CA281F
:0400CC000330AB0052
:1000D0000930B9003208BC003308BD00FF30BE0053
:1000E000FF30BF000330C0000030C1000030C2004C
:1000F0000030C3003B14CC213B102D140A302922C0
:100100002D1883288728AB0B68282D10080089201C
:1001100008000030B2000030B300B30F9428003064
:10012000AC00B20F942808000930B9003208BC00B6
:100130003308BD00FF30BE00FF30BF000330C000F9
:100140000030C1000030C2000030C3003B14CC219D
:100150003B102D14013029222D18AF288D28023094
:10016000AB003B14CC213B102D14013029222D1C57
:100170008D28AB0BB1280800A40003088301A5005B
:100180000A08A6002008A7002108A8002208A90044
:100190008C1AD7282708A0002808A1002908A20047
:1001A00026088A0025088300A40E240E0900AD1C31
:1001B000E228AD1030081A02031DDF28CA280714F0
:1001C000BB14CA287E301A020319E9282F18EF2819
:1001D000EE282F1810292F14AE01CA28CA287D3006
:1001E0001A020319F7282D19F9281A0807292D15BD
:1001F000CA282D115E301A02031903295D301A0234
:1002000003190529CA287E3007297D300729B10046
:1002100051302E078400310880002E0AAE00CA2813
:100220002E03AE00B70051308400B501B601D521D0
:1002300051302E07840000083602031D9C29040358
:10024000840000083502031D9C292F1057308400BC
:1002500000300002031948290130000203197129F6
:100260005130840000083202031DCA28040A8400A9
:1002700000083302031DCA285730840000300002F2
:100280000319592902300002031997293628CA2870
:100290002D184B2930295330840032080002031DE9
:1002A000CA28040A840033080002031DCA282D103E
:1002B000CA28143029220930B900FF30BC00FF30B1
:1002C000BD003208BE003308BF000330C00001305B
:1002D000C1000030C2000030C3003B14CC213B10F1
:1002E000CA285330840000089900FF300002031D23
:1002F000CA28040A8400FF300002031DCA2880298E
:1003000015220930B900FF30BC00FF30BD003208B3
:10031000BE003308BF000330C0000130C10001300F
:10032000C2000030C3003B14CC213B10CA2802306D
:10033000840700088700CA28AE0101308706CA2852
:10034000181218160800BB101F222A082922EB29B0
:10035000BA007E303A020319C2297D303A020319ED
:10036000C7293A08BA008316981CB42983120130B1
:1003700029223A08AD14B000990001302922BB1897
:10038000A32908007D30B2215E30B22108007D3003
:10039000B2215D30B221080006163908B7003C30A2
:1003A0008400B501B601D521EB29B70BD829080087
:1003B00000083606B800F039B80EB8063808F0392B
:1003C0003506B600B606E039B606B80E3806B500F2
:1003D000040A8400D5297E30B2213C3084003908DB
:1003E000B700B70BF429F9290008A821040A8400F2
:1003F000F1293508A8213608A821FE297E30B2212E
:10040000061208000930B900FF30BC00FF30BD0003
:100410003208BE003308BF000330C0000130C10005
:100420000508C2000030C300CC291F222A08292257
:100430001F222A0829221F222A08292208002A0D01
:100440002A0D2A1A013AAA1A013AAA19013AAA004F
:100450000034A200FF30A1003230A000A00B2E2AF1
:100460001430A000A10B2E2A6430A100A20B2E2A6A
:02047000080082
:02400E00D430AC
:00000001FF
