:020000040000FA
:020000000528D1
:08000800932883010728031768
:100010009E019F010313831670308F000F1D0E2861
:10002000FF3085008601870120308C006730990001
:1000300000309A009B15243098008312903098006D
:100040001A081A088B170B17BB012F10FA3007225A
:1000500003300722F3213D282D2803300722E02911
:100060000000000000000000000002300722981885
:100070007A210518E021AA0A35280330AB0009309F
:10008000B9003208BC003308BD00FF30BE00FF30AD
:10009000BF000330C0000030C1000030C20000309B
:1000A000C3003B14A6213B102D140A3007222D1843
:1000B0005A285E28AB0B3F282D102C2860202C28B6
:1000C0000030B2000030B300B30F6B280030AC003A
:1000D000B20F6B2808000930B9003208BC003308A1
:1000E000BD00FF30BE00FF30BF000330C000003055
:1000F000C1000030C2000030C3003B14A6213B10F9
:100100002D14013007222D18862864280230AB00F8
:100110003B14A6213B102D14013007222D1C64280E
:10012000AB0B88280800A40003088301A5000A0877
:10013000A6002008A7002108A8002208A9008C1A00
:10014000AE282708A0002808A1002908A200260838
:100150008A0025088300A40E240E0900AD1CB928CE
:10016000AD1030081A02031DB628A1280714BB14CD
:10017000A1287E301A020319C0282F18C628C528C6
:100180002F18E7282F14AE01A128A1287D301A02CC
:100190000319CE282D19D0281A08DE282D15A128DC
:1001A0002D115E301A020319DA285D301A02031984
:1001B000DC28A1287E30DE287D30DE28B1005130D9
:1001C0002E078400310880002E0AAE00A1282E03DD
:1001D000AE00B70051308400B501B601AF215130F7
:1001E0002E07840000083602031D762904038400CC
:1001F00000083502031D76292F1057308400003087
:100200000002031922290130000203194B29513041
:10021000840000083202031DA128040A840000089B
:100220003302031DA1285730840000300002031957
:10023000332902300002031971290A300002031920
:100240001722A1282D1825290729533084003208A8
:100250000002031DA128040A840033080002031DC4
:10026000A1282D10A128143007220930B900FF3031
:10027000BC00FF30BD003208BE003308BF000330B1
:10028000C0000130C1000030C2000030C3003B1488
:10029000A6213B10A1285330840000089900FF30AC
:1002A0000002031DA128040A8400FF300002031D80
:1002B000A1285A29F3210930B900FF30BC00FF30D2
:1002C000BD003208BE003308BF000330C00001305B
:1002D000C1000130C2000030C3003B14A6213B1016
:1002E000A1280230840700088700A128AE01013050
:1002F0008706A128181218160800BB10FD212A082D
:100300000722C729BA007E303A0203199C297D30A2
:100310003A020319A1293A08BA008316981C8E29BB
:100320008312013007223A08AD14B0009900013061
:100330000722BB187D2908007D308C215E308C217E
:1003400008007D308C215D308C21080006163908AC
:10035000B7003C308400B501B601AF21C729B70B07
:10036000B229080000083606B800F039B80EB80601
:100370003808F0393506B600380D380DB606E039C4
:10038000B606B80E3806B500040A8400AF297E30E0
:100390008C213C3084003908B700B70BD029D5290F
:1003A00000088221040A8400CD29350882213608FC
:1003B0008221DA297E308C2106123B1C3528080068
:1003C0000930B900FF30BC00FF30BD003208BE006C
:1003D0003308BF000330C0000130C1000508C2006F
:1003E0000030BC00A629FD212A080722FD212A0889
:1003F0000722FD212A08072208002A0D2A0D2A1AA1
:10040000013AAA1A013AAA19013AAA000034A20034
:10041000FF30A1003230A000A00B0C2A1430A00045
:10042000A10B0B2A6430A100A20B0C2A0800583043
:1004300084000008F039AB0000302B020319852A34
:1004400010302B020319872A20302B020319292A86
:10045000A128071411231123071058308400001815
:10046000342A0630AB00362A5030AB0076221A23ED
:100470005830840080197322801D702200197B225D
:10048000001D802280187B22801C8022593084002D
:10049000801B7322801F7022001B7322001F70229A
:1004A000801A7322801E7022001A7322001E70228E
:1004B00080197322801D702200197322001D702282
:1004C00080187322801C702200187322001C702276
:1004D00080221123112311231123AB0B362A08008C
:1004E00080227B2208007B2280220800071403233D
:1004F000071011230800071403230710082308001E
:10050000071403230710032308002C14892A2C1036
:10051000892A583084000018902A0630AB00922AAD
:100520005030AB0059308400801BD822801FE0225D
:10053000001BD822001FE022801AD822801EE02251
:10054000001AD822001EE0228019D822801DE02245
:100550000019D822001DE0228018D822801CE02239
:100560000018D822001CE022583084000019BA2A52
:10057000001DBD2A2C18C02ACA2A2C18C52ACF2A29
:10058000E022D822D822D822D42AE022D822D82287
:10059000E022D42AE022D822D822D822D42AE0226B
:1005A000E022E022E022D42AEF22AB0B922AA128FB
:1005B000E82207140330F62207100130F622080063
:1005C000E82207140130F62207100330F622080053
:1005D00007140130F62207100330F6220800071432
:1005E0000130F62207102030F6220800A100E93081
:1005F000A000A00BF92AA10BF72A08008530A00063
:10060000A00B002B08009F30A000A00B052B0800BA
:10061000FB30A0000230A100A00B0F2BA10B0C2B74
:100620000800E730A0000430A100A00B182BA10B9C
:10063000152B08007B2280227B2280227B228022B5
:100640007B2280227B22802280227B227B228022AE
:100650007B2280227B22802280227B2280227B229E
:100660007B2280227B2280227B22802280227B228E
:100670007B22802280227B227B22802280227B227E
:100680007B22802280227B227B22802280227B226E
:0E06900080227B2280227B227B228022080097
:02400E00D430AC
:00000001FF
