:020000040000FA
:020000000528D1
:040002000034003492
:08000800DE2A830183120313B9
:100010008B130A28831203179E01831203179F0173
:100020008316031360309F008316031370308F0014
:100030000F1D182883160313FF30850086018701E2
:100040008316031320308C00831603136730990046
:100050008316031300309A00831603139B1583162F
:1000600003132430980083120313903098001A0869
:100070001A0883120313BD01831203138B170B1786
:10008000A72283120313071087170717831203137E
:100090006D10ED108312031398187B258312031340
:1000A000AA0A83120313051C5A28851C5A28ED1826
:1000B00021224A28831203138B1383120313051C76
:1000C0006710851C6714F4201C216C3084000430F8
:1000D000A20083120313051C8013851C8017F420D3
:1000E0001C2183120313051C0013851C0017F42028
:1000F0001C2183120313051C8012851C8016F4201A
:100100001C2183120313051C0012851C0016F42009
:100110001C2183120313051C8011851C8015F420FB
:100120001C2183120313051C0011851C0015F420EB
:100130001C2183120313051C8010851C8014F420DD
:100140001C2183120313051C0010851C0014F420CD
:100150001C218403A20B692883120313051CE710DA
:10016000851CE714831203138B176810E8142A21E7
:100170004B216708E8066818F328E818F3286D187B
:10018000FD200530EE006E087322EF006F18EF2897
:100190006E08013E73226C02031DEF286E08023EBA
:1001A00073226B02031DEF286E08033E73226A025E
:1001B000031DEF286E08043E73226902031DEF2819
:1001C0008713071414303A26071314303A260717FA
:1001D00064303A26871796303A260710F328053000
:1001E000EE076E0FC3284A2883120313051CF42858
:1001F00083120313851CF42808000D3083120313A7
:10020000BB003108BE003208BF003308C00034080C
:10021000C1000330C2000030C3000A30C4006C08C3
:10022000C5006B08C6006A08C7006908C80000302E
:10023000C900B8256D1008002830A1009022831253
:100240000313051C0800851C080083120313A10B6F
:100250001E290800EC1B6C216C1B6C21EC1A6C2114
:100260006C1A6C21EC196C216C196C21EC186C2146
:100270006C186C21EB1B6C216B1B6C21EB1A6C2135
:100280006B1A6C21EB196C216B196C21EB186C212A
:100290006B186C210800EA1B6F216A1B6F21EA1A98
:1002A0006F216A1A6F21EA196F216A196F21EA1802
:1002B0006F216A186F21E91B6F21691B6F21E91AF1
:1002C0006F21691A6F21E9196F2169196F21E918E6
:1002D0006F2169186F2108000130E806080002301C
:1002E000E80608000A300002031983290B300002D7
:1002F000031988290C3000020319DA290D30000295
:100300000319142AFA2A831203136D143E25FA2ABC
:10031000831203130530AC002C087322AF002F1C8E
:10032000AA292C08AF0000307C222C08013EAF0027
:100330005A087C222C08023EAF005B087C222C0865
:10034000033EAF005C087C222C08043EAF005D0831
:100350007C22FA2A2C08013E7322AB005A082B0299
:10036000031DD5292C08023E7322AB005B082B022B
:10037000031DD5292C08033E7322AB005C082B0219
:10038000031DD5292C08043E7322AB005D082B0207
:10039000031DD52987130714FA303A26FA303A2676
:1003A000FA303A2607108717FA2A0430AC07AC0F48
:1003B0008C29FA2A831203130530AC002C0873220F
:1003C000AF002F180F2A2C08013E7322AB005A08E9
:1003D0002B02031D0F2A2C08023E7322AB005B0880
:1003E0002B02031D0F2A2C08033E7322AB005C086E
:1003F0002B02031D0F2A2C08AF00FF307C222C0893
:10040000013EAF00FF307C222C08023EAF00FF30DF
:100410007C222C08033EAF00FF307C22FA2A0530F4
:10042000AC072C0FDE29FA2A83120313ED18FA2ADF
:100430003E25831203133108F1003208F200ED1457
:10044000FA2A0530EE006E087322EF006F186A2A50
:100450000D3083120313BB007108BE007208BF0089
:100460003308C0003408C1000330C2000130C300AB
:100470000D30C4006E08013E7322C5006E08023EB6
:100480007322C6006E08033E7322C7006E08043E46
:100490007322C8000030C90083120313AD110A3063
:1004A00083120313F000831203138B13B8258312F6
:1004B00003138B1783120313AD10AD1283120313B2
:1004C00098187B251E30952283120313AD196A2AD2
:1004D000F00B532AAD110530EE076E0F232A83125D
:1004E0000313ED104A2803178D0083168C130C1488
:1004F00083120C080313080003178C0003132F0842
:1005000003178D0083168C130C1555308D00AA30FF
:100510008D008C148C188A2A0C1183120313080086
:100520004230A000A00B922A080083120313F500AA
:10053000FF30F4003230F300F30B9C2A1430F30048
:0E054000F40B9C2A6430F400F50B9C2A080092
:02054E00831216
:1005500003133611B610831203130612831203130A
:10056000AD102D12AD12BD10003073228312031393
:10057000B3000130732283120313B40002307322DC
:1005800083120313B500FF30831203133302031DDC
:100590000800FF30831203133402031D0800831286
:1005A0000313B301B4010030AF0033087C2283127F
:1005B00003130130AF0034087C22080083120313B8
:1005C0003614B61CE82A831203138C1A0B2BFA2A52
:1005D00083120313A40003088301A5000A08A600E0
:1005E0002008A7002108A8002208A90083120313ED
:1005F0008C1A0B2B83120313B61809002708A000CE
:100600002808A1002908A20026088A0025088300DE
:10061000A40E240E090083120313AD1C1B2BAD1076
:100620002F08831203131A02031D172BFA2A8312B1
:100630000313BD14FA2A831203137E301A0203191E
:10064000262B83120313AD1A2D2BFA2A83120313C0
:10065000AD1A632BAD16AE01FA2A831203137D3057
:100660001A0203193B2B831203132D193F2B8312FC
:1006700003131A08512B831203132D15FA2A831220
:1006800003132D115E30831203131A0203194D2B2D
:100690005D301A0203194F2BFA2A7E30512B7D3020
:1006A000512B83120313B00053302E078312031310
:1006B0008400831203133008831203138000831213
:1006C0000313AE0AFA2A05302E02031C6F2D831283
:1006D00003132E03AE00B9005330831203138400BA
:1006E00083120313B701B801C725831203135330D4
:1006F0002E0783120313840083120313000883124E
:1007000003133802031D6F2D8312031304038400A7
:10071000831203130008831203133702031D6F2D86
:1007200083120313AD125930831203138400831212
:100730000313B6189C2BBD2C831203135330831262
:10074000031384008312031300088312031333027C
:10075000031DFA2A83120313040A8400831203136D
:100760000008831203133402031DFA2A593083123E
:100770000313840000308312031300020319882C32
:1007800083120313B618FA2A5808013C031960248F
:1007900059308312031384000130831203130002C3
:1007A00003198C2C023000020319332D0330000290
:1007B0000319DC2B7229FA2A0930831203132E0243
:1007C0000319342C0318E52BFA2A5A308312031329
:1007D000840000308312031300020319342C01300B
:1007E00000020319F42BFA2A0C30831203132E0291
:1007F000031CFA2A60245B30831203138400FF3049
:10080000831203130002031D0F2C83120313840AA7
:10081000FF30831203130002031D0F2CFA2A5B30F2
:10082000831203138400831203130008831203133B
:10083000B30083120313840A831203130008831284
:100840000313B400B5140030AF0033087C228312C8
:1008500003130130AF0034087C22831203130230EB
:10086000AF0035087C22FA2A0C303A260B3083126E
:100870000313BB0055308312031384008312031348
:10088000000883120313BE00563083120313840042
:1008900083120313000883120313BF003308C00040
:1008A0003408C1000330C2000030C3000330C4006C
:1008B0000030C5003530C6000030C700B825FA2A20
:1008C00009303A26831203130930BB0055308312D6
:1008D0000313840083120313000883120313BE0062
:1008E000563083120313840083120313000883120B
:1008F0000313BF003308C0003408C1000330C20036
:100900000030C3000030C4000030C500B825080026
:1009100083120313AD15FA2A0C303A2683120313FF
:100920002D18932C952C2D10FA2A2D1AFA2A0930FD
:1009300083120313BB005530831203138400831208
:100940000313000883120313BE00563083120313EF
:10095000840083120313000883120313BF003308BB
:10096000C0003408C1000330C2000030C3000130B1
:10097000C4000030C500B825FA2A8312031353308F
:10098000831203138400FF30831203130002031D3C
:100990009C2B83120313040A8400FF308312031379
:1009A0000002031D9C2B5930831203138400013075
:1009B0008312031300020319DE2CFA2A5830831223
:1009C0000313840001308312031300020319ED2C7A
:1009D0000030000203196024FA2A1E263E258312E5
:1009E00003130B30BB003108BE003208BF003308D0
:1009F000C0003408C1000330C2000130C300013020
:100A0000C4004030C5003230C6000030C70001309D
:100A100058020319532DB825FA2A0C3083120313F8
:100A2000BB00FF30BE00FF30BF003308C0003408F9
:100A3000C1000330C2000030C3000330C4000130E5
:100A4000C5004030C6003230C7000030C800B825AD
:100A50000800831203132A08B3002E2683120313FF
:100A60002A08B4000800023083120313840783129B
:100A700003130008831203138700FA2A55308312E8
:100A80000313840083120313000883120313B100BD
:100A90005630831203138400831203130008831259
:100AA0000313B200080083120313AD11B614AD1086
:100AB000831203138B170A3083120313B100B82576
:100AC000FA303A268312031398187B2583120313F6
:100AD000AD196C2DB10B5F2DAD11B610FA2A831232
:100AE000031305302E02031C772DFA303A268312A9
:100AF0000313AE01FA2A8312031318121816080002
:100B000083120313AD10BD102E26831203132A087F
:100B10003A26E72D83120313BC007E303C020319F2
:100B2000AE2D7D303C020319B32D3C088312031314
:100B3000BC0083120313AD14831203133C08AF00EF
:100B400083120313990083160313981CA52D831297
:100B500003139030A000A00BAB2D08007D3096252C
:100B60005E30962508007D3096255D30962508007C
:100B7000831203133B08AD14B9003E3083120313F4
:100B8000840083120313B701B801C725E72D831230
:100B90000313B90BCC2D0800831203130008831232
:100BA00003133806BA00F039BA0EBA063A08F0391B
:100BB0003706B8003A0D3A0DB806E039B806BA0E55
:100BC0003A06B70083120313040A8400C72D831268
:100BD0000313061683120313AD147E309625831279
:100BE00003133E30831203138400831203133B0864
:100BF000B90083120313B90BFE2D062E83120313C3
:100C000000088A2583120313840AF92D8312031323
:100C100037088A258312031338088A250F2E7E3061
:100C2000962583160313981C132E83120313BD18E5
:100C3000802DAD1083120313061208002E26831296
:100C400003132A083A262E26831203132A083A266B
:100C50002E26831203132A083A2608008312031350
:100C60002A0D2A0D2A1A013AAA1A013AAA19013A9A
:100C7000AA00003483120313A200FF30A100323017
:100C8000A000A00B412E1430A000A10B412E643017
:080C9000A100A20B412E080097
:02400E00D430AC
:00000001FF
