:020000040000FA
:020000000528D1
:040002000034003492
:08000800352A83018312031362
:100010008B130A28831203179E01831203179F0173
:100020008316031370309F00831203179E159E17CB
:100030008316031370308F000F1D1C2883160313C3
:10004000FF30850086018701071587158316031386
:1000500020308C0083160313673099008316031336
:1000600000309A00831603139B1583160313243064
:10007000980083120313903098001A081A0883120C
:100080000313BE01831203132F10831203138B1764
:100090000B179E2183120313061783120313FB0110
:1000A0007B14831203139818D324831203130710AD
:1000B00083120313AA0A51280A300002AA00031C63
:1000C000512A02302A020318512A2A0882077F285F
:1000D000AD286B28512A831203135B30831203135C
:1000E0008400831203130008831203135B1806179E
:1000F0005B1C06135B187B145B1C7B10512A0C30B5
:1001000083120313BC00563083120313840083123E
:100110000313000883120313BF0057308312031325
:10012000840083120313000883120313C0003408F1
:10013000C1003508C2000330C3000030C4000A30DB
:10014000C500C601851C4614C701071D47147B085E
:10015000C8000030C9001025512AE0200F3083125A
:100160000313BC005630831203138400831203135D
:10017000000883120313BF00573083120313840057
:1001800083120313000883120313C0003408C10054
:100190003508C2000330C3000030C4000B30C50076
:1001A0000030C6007708C7007808C8000130C900D1
:1001B0007908CA007A08CB000030CC001025512AFB
:1001C000831603130515831203138D309F0001302E
:1001D0009225831203139F149F18EC280130922557
:1001E000831203131E0883120313F40083160313F0
:1001F0001E0883120313F3002821F7000430F702CE
:100200003521F800831203139F01831203139D30DD
:100210009F0001309225831203139F149F180E290B
:1002200001309225831203131E0883120313F40076
:10023000831603131E0883120313F30083120313A0
:100240009F01831203132821F9003521FA000800C9
:100250000130F600E830F5004C210330EB00E830C7
:10026000EA0062214E306F07080083120313F20187
:10027000F1016D08F0006C08EF0083120313EB012D
:100280000A30EA00003070020319482962213D2932
:10029000831203136F080800F201F101F001EF016E
:1002A000F017F40CF30C031C5B297508F1077608B2
:1002B0000318760FF207F20CF10CF00CEF0C031C94
:1002C000512908002030EE00ED01EC010310EF0D84
:1002D000F00DF10DF20DEC0DED0D031877296B0803
:1002E0006D02031D75296A086C02031C7E296A08C9
:1002F000EC02031CED036B08ED026F14EE0B662994
:10030000080003178D0083168C130C1483120C083D
:100310000313080003178C000313300803178D0024
:1003200083168C130C1555308D00AA308D008C145B
:0C0330008C1898290C118312031308008C
:04033C008312031312
:100340003711B71083120313061283120313AD1073
:100350002D12BE100030812183120313B40001302E
:10036000812183120313B50002308121831203130C
:10037000B600FF30831203133402031DCB29FF3074
:10038000831203133502031DCB2983120313B40117
:10039000B501CE2108003618CE21080083120313C0
:1003A0002D14831203130330AB007625831203133D
:1003B0002D14831203130930BC003408BF00350824
:1003C000C000FF30C100FF30C2000330C300003066
:1003D000C4000130C5000030C60010250A30922547
:1003E000831203132D18F529FF29831203130430F8
:1003F0002B02031CFD29AB0BD5292D1008008312FD
:1004000003130030B4000030B50083120313B50F9E
:10041000152A0030AC00B40F152A0800831203130C
:100420000230AB00831203132D140930BC003408D2
:10043000BF003508C000FF30C100FF30C2000330EC
:10044000C3000030C4000130C5000030C6000A30CF
:100450009225831203132D1C052A83120313AB0B61
:10046000152A831203132D10080083120313371467
:10047000B71C3F2A831203138C1A622A512A831253
:100480000313A40003088301A5000A08A60020089E
:10049000A7002108A8002208A900831203138C1AC0
:1004A000622A83120313B71809002708A00028083E
:1004B000A1002908A20026088A0025088300A40EAE
:1004C000240E090083120313AD1C722AAD103008EC
:1004D000831203131A02031D6E2A512A8312031377
:1004E000BE14512A831203137E301A0203197D2A87
:1004F000831203132F18852A842A831203132F18BB
:10050000BB2A2F14AE01512A512A831203137D30C6
:100510001A020319932A831203132D19972A83129F
:1005200003131A08A92A831203132D15512A8312C3
:1005300003132D115E30831203131A020319A52A27
:100540005D301A020319A72A512A7E30A92A7D306C
:10055000A92A83120313B10054302E078312031308
:100560008400831203133108831203138000831263
:100570000313AE0A512A05302E02031CC72C831226
:1005800003132E03AE00BA00543083120313840009
:1005900083120313B801B9011F25831203135430CA
:1005A0002E0783120313840083120313000883129F
:1005B00003133902031DC72C8312031304038400A1
:1005C000831203130008831203133802031DC72C80
:1005D000831203132F105A308312031384008312E3
:1005E0000313B718F42A152C831203135430831203
:1005F00003138400831203130008831203133402CD
:10060000031D512A83120313040A84008312031367
:100610000008831203133502031D512A5A30831236
:100620000313840000308312031300020319E02B2C
:1006300083120313B718512A5908013C0319B82330
:100640005A30831203138400013083120313000213
:100650000319E42B0230000203198B2C0330000233
:100660000319342B5C28512A0930831203132E02FC
:1006700003198C2B03183D2B512A5B308312031373
:100680008400003083120313000203198C2B013005
:10069000000203194C2B512A0C30831203132E0233
:1006A000031C512AB8235C30831203138400FF30EB
:1006B000831203130002031D672B83120313840AA2
:1006C000FF30831203130002031D672B512A5C3095
:1006D000831203138400831203130008831203138D
:1006E000B40083120313840A8312031300088312D5
:1006F0000313B500B6140030B00034088A21831209
:1007000003130130B00035088A218312031302302D
:10071000B00036088A21512A0C3092250B30831202
:100720000313BC0056308312031384008312031397
:10073000000883120313BF00573083120313840091
:1007400083120313000883120313C0003408C1008E
:100750003508C2000330C3000030C4000330C500B8
:100760000030C6003630C7000030C8001025512ABE
:1007700009309225831203130930BC0056308312CE
:100780000313840083120313000883120313BF00B2
:10079000573083120313840083120313000883125B
:1007A0000313C0003408C1003508C2000330C30081
:1007B0000030C4000030C5000030C600102508001D
:1007C00083120313AD15512A0C30922583120313A3
:1007D0002D18EB2BED2B2D10512A2D1A512A0930F3
:1007E00083120313BC005630831203138400831258
:1007F0000313000883120313BF005730831203133F
:10080000840083120313000883120313C00034080A
:10081000C1003508C2000330C3000030C4000130FD
:10082000C5000030C6001025512A8312031354302E
:10083000831203138400FF30831203130002031D8D
:10084000F42A83120313040A8400FF308312031373
:100850000002031DF42A5A3083120313840001306E
:100860008312031300020319362C512A59308312C4
:100870000313840001308312031300020319452C73
:10088000003000020319B823512A762596248312DA
:1008900003130B30BC003208BF003308C00034081B
:1008A000C1003508C2000330C3000130C40001306C
:1008B000C5004030C6003130C7000030C8000130EC
:1008C00059020319AB2C1025512A0C308312031343
:1008D000BC00FF30BF00FF30C0003408C100350845
:1008E000C2000330C3000030C4000330C500013033
:1008F000C6004030C7003130C8000030C9001025A4
:100900000800831203132A08B400862583120313F8
:100910002A08B500080002308312031384078312EB
:1009200003130008831203138700512A56308312E1
:100930000313840083120313000883120313B2000D
:1009400057308312031384008312031300088312A9
:100950000313B300080083120313AD11B714AD10D5
:10096000831203138B170A3083120313B20010256E
:10097000FA309225831203139818D3248312031399
:10098000AD19C42CB20BB72CAD11B710512A83127C
:10099000031305302E02031CCF2CFA30922583124C
:1009A0000313AE01512A83120313181218160800FC
:1009B00083120313AD10BE108625831203132A0879
:1009C00092253F2D83120313BD007E303D02031993
:1009D000062D7D303D0203190B2D3D0883120313B4
:1009E000BD0083120313AD14831203133D08B0003E
:1009F00083120313990083160313981CFD2C831292
:100A000003139030A000A00B032D08007D30EE24CE
:100A10005E30EE2408007D30EE245D30EE240800C8
:100A2000831203133C08AD14BA003F308312031342
:100A3000840083120313B801B9011F253F2D8312CF
:100A40000313BA0B242D080083120313000883122A
:100A500003133906BB00F039BB0EBB063B08F03967
:100A60003806B9003B0D3B0DB906E039B906BB0E9F
:100A70003B06B80083120313040A84001F2D83125F
:100A80000313061683120313AD147E30EE24831273
:100A900003133F30831203138400831203133C08B3
:100AA000BA0083120313BA0B562D5E2D8312031363
:100AB0000008E22483120313840A512D83120313C6
:100AC0003808E224831203133908E224672D7E30AC
:100AD000EE2483160313981C6B2D83120313BE1888
:100AE000D82CAD108312031306120800862583123A
:100AF00003132A0892258625831203132A089225B8
:100B00008625831203132A089225080083120313F3
:100B10002A0D2A0D2A1A013AAA1A013AAA19013AEB
:100B2000AA00003483120313A200FF30A100323068
:100B3000A000A00B992D1430A000A10B992D6430BA
:080B4000A100A20B992D080091
:02400E00D430AC
:00000001FF
