:020000040000FA
:020000000528D1
:040002000034003492
:08000800872A83018312031310
:100010008B130A28831203179E01831203179F0173
:100020008316031370308F000F1D142883160313DB
:10003000F9308500860187018316031320308C0078
:1000400083160313673099008316031300309A0058
:10005000831603139B158316031324309800831211
:100060000313903098001A081A0883120313BE0174
:100070008620831203138B170B17F02183120313AF
:100080008B138312031300303402031D4C280030FD
:100090003502031D4C284E288320502886205028E6
:1000A000E80106122F10FA30E42589208312031389
:1000B0008B17831203139818252583120313071037
:1000C00083120313AA0A05186820051C6810592812
:1000D00068180800FA30E425051C7928FA30E42570
:1000E000FA30E425FA30E425FA30E42505187B28B7
:1000F0000800B7240800D324B7248620FA30E4256A
:10010000892068140800851405110800851005155C
:1001100008008510051108000A300002AA00031C1F
:10012000A32A01302A020318A32A2A088207992049
:10013000A32A5B3084000008F039AB0000302B02AA
:100140000319092910302B0203190B2920302B0227
:100150000319AB28A32A07149521952107105B30BA
:1001600084000018B6280830AB00B8285030AB0027
:10017000FA209E215B3084008019F720801DF42036
:100180000019FF20001D04218018FF20801C04217D
:100190005C3084008019F720801DF4200019F720BE
:1001A000001DF4208018F720801CF4200018F72090
:1001B000001CF4205D3084008019F720801DF4209D
:1001C0000019F720001DF4208018F720801CF4206F
:1001D0000018F720001CF420042195219521952179
:1001E0009521AB0BB82808000421FF200800FF2050
:1001F000042108000714872107109521080007141F
:10020000872107108C2108000714872107108721F8
:1002100008002C140D292C100D295B3084000018C7
:1002200014290830AB0016295030AB005C30840034
:10023000801B5C21801F6421001B5C21001F642146
:10024000801A5C21801E6421001A5C21001E64213A
:1002500080195C21801D642100195C21001D64212E
:1002600080185C21801C642100185C21001C642122
:100270005B30840000193E29001D41292C184429B7
:100280004E292C184929532964215C215C215C21C9
:10029000582964215C215C216421582964215C2156
:1002A0005C215C215829642164216421642158293E
:1002B0007321AB0B1629A32A6C21071403307A2172
:1002C000071001307A2108006C21071401307A21CF
:1002D000071003307A210800071401307A21071033
:1002E00003307A210800071401307A2107102030EA
:1002F0007A210800A100E930A000A00B7D29A10B04
:100300007B2908008530A000A00B842908009F30BD
:10031000A000A00B89290800FB30A0000230A1003A
:10032000A00B9329A10B90290800E730A00004300E
:10033000A100A00B9C29A10B99290800FF200421F2
:10034000FF200421FF200421FF200421FF2004219D
:100350000421FF20FF200421FF200421FF2004218D
:100360000421FF200421FF20FF200421FF2004217D
:10037000FF2004210421FF20FF2004210421FF206D
:10038000FF2004210421FF20FF2004210421FF205D
:10039000FF2004210421FF200421FF200421FF204D
:1003A000FF200421080003178D0083168C130C1402
:1003B00083120C080313080003178C000313300882
:1003C00003178D0083168C130C1555308D00AA3041
:1003D0008D008C148C18EA290C1183120313080069
:1003E000831203133711B7108312031306128312FB
:1003F0000313AD102D12BE100030D321831203134E
:10040000B4000130D32183120313B5000230D3218D
:1004100083120313B600FF30831203133402031D4B
:100420001D2AFF30831203133502031D1D2A831278
:100430000313B401B5012022080036182022080059
:10044000831203132D14831203130330AB00C8254A
:10045000831203132D14831203130930BC003408D4
:10046000BF003508C000FF30C100FF30C2000330BC
:10047000C3000030C4000130C5000030C600622552
:100480000A30E425831203132D18472A512A8312B8
:10049000031304302B02031C4F2AAB0B272A2D1009
:1004A0000800831203130030B4000030B50083123B
:1004B0000313B50F672A0030AC00B40F672A080099
:1004C000831203130230AB00831203132D1409307F
:1004D000BC003408BF003508C000FF30C100FF3049
:1004E000C2000330C3000030C4000130C50000303A
:1004F000C6000A30E425831203132D1C572A8312E9
:100500000313AB0B672A831203132D100800831209
:1005100003133714B71C912A831203138C1AB42ABD
:10052000A32A83120313A40003088301A5000A0869
:10053000A6002008A7002108A8002208A90083120D
:1005400003138C1AB42A83120313B718090027085F
:10055000A0002808A1002908A20026088A00250872
:100560008300A40E240E090083120313AD1CC42AB9
:10057000AD103008831203131A02031DC02AA32AE8
:1005800083120313BE14A32A831203137E301A02AC
:100590000319CF2A831203132F18D72AD62A8312BE
:1005A00003132F180D2B2F14AE01A32AA32A831295
:1005B00003137D301A020319E52A831203132D1940
:1005C000E92A831203131A08FB2A831203132D1539
:1005D000A32A831203132D115E30831203131A0210
:1005E0000319F72A5D301A020319F92AA32A7E306B
:1005F000FB2A7D30FB2A83120313B10054302E07EF
:10060000831203138400831203133108831203132C
:10061000800083120313AE0AA32A05302E02031CA6
:10062000192D831203132E03AE00BA005430831227
:100630000313840083120313B801B90171258312D7
:10064000031354302E078312031384008312031301
:100650000008831203133902031D192D831203139B
:100660000403840083120313000883120313380267
:10067000031D192D831203132F105A3083120313F5
:10068000840083120313B718462B672C83120313BD
:10069000543083120313840083120313000883125F
:1006A00003133402031DA32A83120313040A8400D4
:1006B000831203130008831203133502031DA32AB8
:1006C0005A30831203138400003083120313000294
:1006D0000319322C83120313B718A32A5908013CBB
:1006E00003190A245A308312031384000130831241
:1006F000031300020319362C023000020319DD2C0B
:10070000033000020319862B8C28A32A0930831298
:1007100003132E020319DE2B03188F2BA32A5B3041
:1007200083120313840000308312031300020319A1
:10073000DE2B0130000203199E2BA32A0C308312FA
:1007400003132E02031CA32A0A245C308312031312
:100750008400FF30831203130002031DB92B8312A0
:100760000313840AFF30831203130002031DB92B05
:10077000A32A5C308312031384008312031300083E
:1007800083120313B40083120313840A8312031326
:10079000000883120313B500B6140030B00034080B
:1007A000DC21831203130130B0003508DC218312F1
:1007B00003130230B0003608DC21A32A0C30E425F4
:1007C0000B3083120313BC005630831203138400D2
:1007D00083120313000883120313BF0057308312E0
:1007E0000313840083120313000883120313C00051
:1007F0003408C1003508C2000330C3000030C40013
:100800000330C5000030C6003630C7000030C800D5
:100810006225A32A0930E425831203130930BC00A2
:1008200056308312031384008312031300088312CB
:100830000313BF0057308312031384008312031382
:10084000000883120313C0003408C1003508C20039
:100850000330C3000030C4000030C5000030C600C3
:100860006225080083120313AD15A32A0C30E4257A
:10087000831203132D183D2C3F2C2D10A32A2D1A63
:10088000A32A093083120313BC00563083120313CA
:10089000840083120313000883120313BF00573030
:1008A00083120313840083120313000883120313BB
:1008B000C0003408C1003508C2000330C300003056
:1008C000C4000130C5000030C6006225A32A83128F
:1008D00003135430831203138400FF308312031375
:1008E0000002031D462B83120313040A8400FF3009
:1008F000831203130002031D462B5A308312031385
:10090000840001308312031300020319882CA32AE8
:100910005930831203138400013083120313000241
:100920000319972C0030000203190A24A32AC825B2
:10093000E824831203130B30BC003208BF003308D5
:10094000C0003408C1003508C2000330C3000130C4
:10095000C4000130C5004030C6003030C700003050
:10096000C800013059020319FD2C6225A32A0C305E
:1009700083120313BC00FF30BF00FF30C0003408F7
:10098000C1003508C2000330C3000030C40003308A
:10099000C5000130C6004030C7003030C80000300C
:1009A000C90062250800831203132A08B400D82561
:1009B000831203132A08B5000800023083120313C0
:1009C0008407831203130008831203138700A32AEA
:1009D000563083120313840083120313000883121A
:1009E0000313B200573083120313840083120313DE
:1009F000000883120313B300080083120313AD1120
:100A0000B714AD10831203138B170A30831203132C
:100A1000B2006225FA30E4258312031398182525C5
:100A200083120313AD19162DB20B092DAD11B7109A
:100A3000A32A8312031305302E02031C212DFA3042
:100A4000E42583120313AE01A32A831203131812A1
:100A50001816080083120313AD10BE10D825831298
:100A600003132A08E425912D83120313BD007E3061
:100A70003D020319582D7D303D0203195D2D3D08BF
:100A800083120313BD0083120313AD1483120313E7
:100A90003D08B00083120313990083160313981CBA
:100AA0004F2D831203139030A000A00B552D08008A
:100AB0007D3040255E30402508007D3040255D308A
:100AC00040250800831203133C08AD14BA003F30E0
:100AD00083120313840083120313B801B901712533
:100AE000912D83120313BA0B762D08008312031382
:100AF0000008831203133906BB00F039BB0EBB0696
:100B00003B08F0393806B9003B0D3B0DB906E0391A
:100B1000B906BB0E3B06B80083120313040A840017
:100B2000712D83120313061683120313AD147E3046
:100B30004025831203133F30831203138400831272
:100B400003133C08BA0083120313BA0BA82DB02D6F
:100B5000831203130008342583120313840AA32D80
:100B600083120313380834258312031339083425FC
:100B7000B92D7E30402583160313981CBD2D83129A
:100B80000313BE182A2DAD1083120313061208009A
:100B9000D825831203132A08E425D82583120313CA
:100BA0002A08E425D825831203132A08E42508001F
:100BB000831203132A0D2A0D2A1A013AAA1A013A9E
:100BC000AA19013AAA00003483120313A200FF30CD
:100BD000A1003230A000A00BEB2D1430A000A10B1F
:0C0BE000EB2D6430A100A20BEB2D0800EF
:02400E00D430AC
:00000001FF
