:020000040000FA
:020000000528D1
:040002000034003492
:08000800802A83018312031317
:100010008B138316031370308F000F1D0D2883126E
:1000200003179E01831203179F0183160313603089
:100030009F0083160313CF30850086018701831646
:10004000031320308C008316031367309900831646
:10005000031300309A00831603139B1583160313B2
:100060002430980083120313903098001A081A085D
:10007000831203138B170B173F228312031385126E
:100080003030870005162922831203130512292216
:10009000831203133C3087000516292283120313B1
:1000A000051229228312031308308700051629221E
:1000B00083120313051229228312031301308700D0
:1000C0000516292283120313051229228312031312
:1000D00006308700051629228312031305122922F0
:1000E000831203130C308700051629228312031391
:1000F00005122922831203134C308700051687004E
:100100008516292283120313051229228312031351
:10011000831203135030A0008312031307088312C5
:100120000313A100870A051629228312031305125F
:1001300029228312031314305D2683120313A00BAC
:100140009228831203139818932583160313A40A85
:10015000A1285825D13084000030831300020319F0
:10016000DA280130831300020319E82802308313D0
:10017000000203190B2903308313000203192E29EF
:100180000430831300020319512905308313000240
:1001900003197429063083130002031997290730C5
:1001A000831300020319BA290830831300020319CC
:1001B000DD299C2A8312031385120F308700051650
:1001C00034228312031305123422831203139C2A50
:1001D0008312031385120030870087170516342217
:1001E0008312031305123422831203130A30A00072
:1001F000D230840083120313851600088700051689
:100200003422831203130512342283120313840A47
:10021000A00BFA289C2A8312031385120A30870048
:100220008717051634228312031305123422831212
:1002300003130A30A000D230840083120313851602
:100240000008870005163422831203130512342296
:1002500083120313840AA00B1D299C2A8312031303
:100260008512143087008717051634228312031372
:1002700005123422831203130A30A000D230840006
:100280008312031385160008870005163422831293
:1002900003130512342283120313840AA00B40298E
:1002A0009C2A8312031385121E30870087170516B8
:1002B00034228312031305123422831203130A30EB
:1002C000A000D23084008312031385160008870033
:1002D00005163422831203130512342283120313EA
:1002E000840AA00B63299C2A8312031385124030D1
:1002F0008700871705163422831203130512342250
:10030000831203130A30A000D23084008312031337
:100310008516000887000516342283120313051280
:10032000342283120313840AA00B86299C2A831289
:10033000031385124A30870087170516342283126B
:10034000031305123422831203130A30A000D230A3
:1003500084008312031385160008870005163422D3
:10036000831203130512342283120313840AA00B91
:10037000A9299C2A831203138512543087008717FA
:100380000516342283120313051234228312031339
:100390000A30A000D23084008312031385160008AF
:1003A00087000516342283120313051234228312A8
:1003B0000313840AA00BCC299C2A831203138512F1
:1003C0005E30870087170516342283120313051247
:1003D0003422831203130A30A000D2308400831227
:1003E00003138516000887000516342283120313B1
:1003F0000512342283120313840AA00BEF299C2ACE
:10040000831203178D00831603178C130C148312A9
:1004100003170C08831203130800831203178C00C0
:10042000831603132708831203178D0083160317FF
:100430008C130C155530831603178D00AA308D00D0
:10044000831603178C148C18232A0C1183120313A0
:10045000080083160313CF30A0000830A100A00BC2
:10046000322AA10B2F2A080083160313C730A000DD
:0E0470000130A100A00B3D2AA10B3A2A080082
:02047E008312E7
:1004800003137511F5108312031306128316031359
:10049000A5102512A51283160313B41000300022F4
:1004A00083160313AB000130002283160313AC0044
:1004B0000230002283160313AD00FF3083160313AE
:1004C0002B02031D0800FF30831603132C02031DAB
:1004D000080083160313AB0183160313AC0100302D
:1004E00083160313A700831603132B080D2283160C
:1004F00003130130A700831603132C080D220800F4
:100500007514F51C882A831203138C1AAE2A9C2AB0
:10051000F00003088301F100831603132008F200A2
:10052000831603132108F300831603132208F40033
:10053000831203138C1AAE2AF51809007208831669
:100540000313A000730883160313A1007408831615
:100550000313A200710883007008090083160313B7
:10056000A51CC02AA51083160313270883120313A2
:100570001A02031DBC2A9C2A83160313B4149C2A56
:10058000831203137E301A020319CB2A8316031336
:10059000A51AD42A9C2A83160313A51A092BA5167B
:1005A00083160313A6019C2A831203137D301A02BB
:1005B0000319E22A831603132519E62A831203136B
:1005C0001A08F82A8316031325159C2A8316031389
:1005D00025115E30831203131A020319F42A5D30C9
:1005E0001A020319F62A9C2A7E30F82A7D30F82A4E
:1005F00083160313A800CA3083160313260784004A
:100600008316031328088313800083160313A60A96
:100610009C2A0530831603132602031C872D83169C
:1006200003132603A60083160313B000CA308312F7
:100630000313840083160313AE0183160313AF0163
:10064000E725CA30831603132607840083130008A6
:10065000831603132F02031D872D040384008313C5
:100660000008831603132E02031D872D8316031320
:10067000A512D03083120313840083120313F518DC
:10068000422B582C83160313CA30840083130008AE
:10069000831603132B02031D9C2A040A8400831370
:1006A0000008831603132C02031D9C2AD0308400FB
:1006B0000030831300020319292C83120313F51849
:1006C0009C2A831603134F08013C03190724D030DA
:1006D000840001308313000203192D2C0230831390
:1006E00000020319502D0430831300020319A928B6
:1006F0009C2A0D308316031326020319D52B0318E9
:10070000822B9C2AD5308400003083130002031909
:10071000D52B01308313000203198F2B9C2A103034
:10072000831603132602031C9C2AD6308400FF3054
:1007300083130002031DA52B83120313840AFF30C9
:1007400083130002031DA52B9C2AD630840083133B
:10075000000883160313AB00840A83130008831672
:100760000313AC0083160313AD1400308316031378
:10077000A700831603132B080D22831603130130E1
:1007800083160313A700831603132C080D22831668
:100790000313023083160313A700831603132D08D7
:1007A0000D220C305D26E9249C2A0C305D260B308E
:1007B00083160313B200CC30840083130008831621
:1007C0000313B500CD308400831300088316031390
:1007D000B600831603132B0883160313B700831682
:1007E00003132C0883160313B8000330B90000303C
:1007F000BA000330BB000030BC00831603132D0881
:1008000083160313BD000030BE00D4259C2A093096
:100810005D26093083160313B200CC3084008313A5
:10082000000883160313B500CD308400831300083D
:1008300083160313B6002B08B7002C08B80003304A
:10084000B9000030BA000030BB000030BC00D42535
:10085000080083160313A5159C2A0C305D26831609
:1008600003132518342C362C25109C2A251A9C2A73
:10087000093083160313B200CC30840083130008C0
:1008800083160313B500CD3084008313000883164C
:100890000313B6002B08B7002C08B8000330B900CA
:1008A0000030BA000130BB000030BC00D4259C2AC7
:1008B00083160313CA308400FF308316031300022B
:1008C000031D422B840AFF30831603130002031D0D
:1008D000422BD03084000C308316031326020318F9
:1008E000772C0130831300020319A42C9C2AD130E9
:1008F0008400831300300002031D9C2AD230840040
:10090000831300300002031D9C2AD330840083131C
:1009100040300002031D9C2AD430840083133330FE
:100920000002031D9C2AD030840083130130000292
:100930000319A02C8313033000020319792B9C2A7E
:100940000C305D26E9249C2ACF30840001308313CB
:1009500000020319B12C003083130002031907248D
:100960009C2A41260C305D2658250D308316031332
:10097000B20083160313290883160313B5008316E8
:1009800003132A0883160313B600831603132B08D8
:1009900083160313B700831603132C08831603135F
:1009A000B8000330B9000130BA000130BB0000309C
:1009B000BC000030BD004030BE003330BF0000300E
:1009C000C0000130831603134F020319672DD4258D
:1009D0009C2A58250D3083160313B2008316031387
:1009E000290883160313B500831603132A088316F8
:1009F0000313B600831603132B0883160313B700E3
:100A0000831603132C0883160313B8000330B900B0
:100A10000030BA000130BB000030BC000030BD0027
:100A20004030BE003330BF000030C000D425080085
:100A30000E3083160313B20083160313FF30B50084
:100A4000FF30B600831603132B0883160313B70079
:100A5000831603132C0883160313B8000330B90060
:100A60000030BA000330BB000130BC000030BD00D4
:100A70000030BE004030BF003330C0000030C10045
:100A8000D425080083160313240883160313AB0030
:100A9000512683160313240883160313AC000800A1
:100AA00002308407831300088312031387009C2AF3
:100AB000CC3084008313000883160313A900CD30C3
:100AC00084008313000883160313AA00080083160A
:100AD0000313A511A510F514831203138B170A3005
:100AE00083160313A900D425FA305D26831203135D
:100AF0009818932583160313A519822D83160313C3
:100B0000A90B732D83160313A511F5109C2A05302C
:100B1000831603132602031C8F2DFA305D268316DD
:100B20000313A6019C2A8312031318121816080037
:100B300083160313A51083160313B41051268316CE
:100B4000031324085D26112E83160313B3007E3091
:100B500033020319CA2D7D3033020319CF2D330818
:100B600083160313B30083160313A514831603130C
:100B7000330883160313A700831203139900831607
:100B80000313981CC12D831603139030A000A00BF3
:100B9000C72D08007D30B0255E30B02508007D30BF
:100BA000B0255D30B0250800831603133208831684
:100BB0000313B00083160313A514B5308400831605
:100BC0000313AE0183160313AF01E725112E83161D
:100BD0000313B00BEC2D08008313000883160313D6
:100BE0002F0683160313B100F039B10EB106310898
:100BF000F039831603132E0683160313AF008316F2
:100C00000313310D310D83160313AF06E039AF0620
:100C100083160313B10E310683160313AE00840A44
:100C2000E72D83120313061683160313A5147E30D3
:100C3000B025B530840083160313320883160313DE
:100C4000B00083160313B00B262E2B2E831300083F
:100C5000A425840A212E831603132E08A4258316A7
:100C600003132F08A425342E7E30B02583160313DA
:100C7000B418982D83160313A510831203130612BC
:100C8000080051268316031324085D265126831677
:100C9000031324085D2651268316031324085D26BA
:100CA000080083160313240D240D241A013AA41AF4
:100CB000013AA419013AA400003483160313A200D8
:100CC000FF30A1003230A000A00B642E1430A00031
:0E0CD000A10B642E6430A100A20B642E08005C
:02400E00D430AC
:00000001FF
