:020000040000FA
:020000000528D1
:040002000034003492
:08000800002A071483010828F7
:1000100003179E019F0107309E0003138316703063
:100020009F0070308F000F1D1328FF308500860160
:10003000870121308C006730990000309A009B15B1
:10004000243098008312903098001A081A088B17F1
:100050000B17BE012F100E30E80081309F003030AA
:1000600090008E018F018601FF30EB004225712147
:1000700098189F240710AA0AAA2038280C1841288B
:10008000192A0C1010108E018F011014EE0B192A72
:1000900087101010192A0A300002AA00031C1D2A1A
:1000A00003302A0203181D2A2A0882076F285A28BB
:1000B00076281D2A5B30840000085F201D2AE80096
:1000C0000330AB004121071468084B210710412180
:1000D000071468084B210710AB0B622808005B303F
:1000E000840000188714001C87101D2A42258930BF
:1000F0009F0041219F149F187B28831203130B300C
:10010000BC005630831203138400831203130008CB
:1001100083120313BF00573083120313840083122A
:100120000313000883120313C0003408C10035080C
:10013000C2000330C3000130C4000C30C500831678
:100140001E088312C6001E08C7000030C8003E14F7
:10015000DC241D2A0230E900851D03290030E90056
:100160000330AB00371081309F0041219F149F184E
:10017000B72883161E088312EC001E08ED003718FE
:10018000B228ED1C03296D08023C031DCF28DF3087
:100190006C02031CCC28CF28AB0BB228F22801300C
:1001A000E9000330AB00371085309F0041219F14D8
:1001B0009F18D82883161E088312EC001E08ED0035
:1001C0003718D3289E1C03291E08023C031DF02863
:1001D000DF306C02031CED28F028AB0BD328F2288B
:1001E000EB0108000130EA00272169088207F9289D
:1001F000FE286B1808006B1421210729EB18080052
:10020000EB14212107290030EA003A2107290B309D
:10021000BC00FF30BF00FF30C0003408C10035080B
:10022000C2000330C3000130C400AA30C5006A0810
:10023000C6006908C7000030C8003E14DC24412114
:100240000800691C0E30691807305F20080037105D
:1002500089309F0041219F149F182C2983161E0866
:100260008312EC001E08ED00371827296D180800CE
:10027000ED1808008E018F0110147830EE008714FD
:1002800008003F30A0002030A100A00B4829A10B9E
:1002900045294A290800A1004230A000A00B4E29A0
:1002A000A10B4C290000080003178D0083168C1346
:1002B0000C1483120C080313080003178C0003139B
:1002C000300803178D0083168C130C1555308D00E4
:1002D000AA308D008C148C186B290C118312031317
:0202E000080014
:0E02E200831203133711B71083120313061291
:1002F00083120313AD102D12BE100030542183124F
:100300000313B4000130542183120313B5000230EB
:10031000542183120313B6003618A021FF30831234
:1003200003133402031D9F29FF3083120313350288
:10033000031D9F2983120313B401B501A0210800F6
:10034000831203132D140330AB00831203132D14F7
:10035000831203130930BC003408BF003508C00005
:10036000FF30C100FF30C2000330C3000030C400C2
:100370000130C5000030C600DC240A305E2583123F
:1003800003132D18C429CA2983120313AB0BA52903
:100390002D100800831203130030B4000030B500A4
:1003A00083120313B50FE0290030AC00B40FE0292D
:1003B0000800831203130230AB00831203132D14C1
:1003C0000930BC003408BF003508C000FF30C10050
:1003D000FF30C2000330C3000030C4000130C5004C
:1003E0000030C6000A305E25831203132D1CD0296D
:1003F00083120313AB0BE029831203132D100800A3
:10040000831203133714B71C0A2A831203138C1A9E
:100410002E2A1D2A83120313A40003088301A500BA
:100420000A08A6002008A7002108A8002208A900A1
:100430003E28831203138C1A2E2A83120313B71833
:1004400009002708A0002808A1002908A200260802
:100450008A0025088300A40E240E090083120313CA
:10046000AD1C3E2AAD103008831203131A02031D7F
:100470003A2A1D2A83120313BE141D2A8312031362
:100480007E301A020319492A831203132F18512AA6
:10049000502A831203132F18872A2F14AE011D2A06
:1004A0001D2A831203137D301A0203195F2A831257
:1004B00003132D19632A831203131A08752A831252
:1004C00003132D151D2A831203132D115E30831281
:1004D00003131A020319712A5D301A020319732AD1
:1004E0001D2A7E30752A7D30752A83120313B100D0
:1004F00054302E0783120313840083120313310830
:1005000083120313800083120313AE0A1D2A0530E1
:100510002E02031C932C831203132E03AE00BA0089
:10052000543083120313840083120313B801B901FA
:10053000EB248312031354302E0783120313840019
:10054000831203130008831203133902031D932C33
:10055000831203130403840083120313000883121D
:1005600003133802031D932C831203132F105A30E8
:1005700083120313840083120313B718C02AE12BDC
:100580008312031354308312031384008312031362
:100590000008831203133402031D1D2A8312031360
:1005A000040A840083120313000883120313350224
:1005B000031D1D2A5A308312031384000030831256
:1005C000031300020319AC2B83120313B7181D2A5F
:1005D0005908013C031984235A3083120313840001
:1005E00001308312031300020319B02B0230000202
:1005F0000319572C033000020319002B4B281D2A26
:100600000930831203132E020319582B0318092BE8
:100610001D2A5B30831203138400003083120313FE
:1006200000020319582B013000020319182B1D2A50
:100630000C30831203132E02031C1D2A84235C300A
:10064000831203138400FF30831203130002031D7F
:10065000332B83120313840AFF3083120313000227
:10066000031D332B1D2A5C30831203138400831275
:100670000313000883120313B40083120313840AC4
:1006800083120313000883120313B500B61400305D
:10069000B00034085D21831203130130B000350827
:1006A0005D21831203130230B00036085D211D2A3C
:1006B0000C305E250B3083120313BC0056308312BE
:1006C0000313840083120313000883120313BF0073
:1006D000573083120313840083120313000883121C
:1006E0000313C0003408C1003508C2000330C30042
:1006F0000030C4000330C5000030C6003630C700EB
:100700000030C800DC241D2A09305E258312031343
:100710000930BC0056308312031384008312031384
:10072000000883120313BF005730831203138400A1
:1007300083120313000883120313C0003408C1009E
:100740003508C2000330C3000030C4000030C500CB
:100750000030C600DC24080083120313AD151D2AE7
:100760000C305E25831203132D18B72BB92B2D10D7
:100770001D2A2D1A1D2A093083120313BC0056307E
:1007800083120313840083120313000883120313DC
:10079000BF00573083120313840083120313000831
:1007A00083120313C0003408C1003508C2000330AF
:1007B000C3000030C4000130C5000030C600DC2496
:1007C0001D2A831203135430831203138400FF3055
:1007D000831203130002031DC02A83120313040AA9
:1007E0008400FF30831203130002031DC02A5A3015
:1007F00083120313840001308312031300020319D0
:10080000022C1D2A593083120313840001308312F5
:10081000031300020319112C003000020319842372
:100820001D2A42256224831203130B30BC003208B8
:10083000BF003308C0003408C1003508C2000330CF
:10084000C3000130C4000130C5002330C60062304F
:10085000C7000030C800013059020319772CDC248E
:100860001D2A0C3083120313BC00FF30BF00FF3081
:10087000C0003408C1003508C2000330C300003096
:10088000C4000330C5000130C6002330C700623009
:10089000C8000030C900DC240800831203132A08B2
:1008A000B4005225831203132A08B5000800023051
:1008B00083120313840783120313000883120313A4
:1008C00087001D2A563083120313840083120313FA
:1008D000000883120313B2005730831203138400FD
:1008E00083120313000883120313B300080083125A
:1008F0000313AD11B714AD10831203138B170A3015
:1009000083120313AB00DC24FA305E258312031339
:1009100098189F2483120313AD19902CAB0B832CD2
:10092000AD11B7101D2A8312031305302E02031CCC
:100930009B2CFA305E2583120313AE011D2A83120D
:10094000031318121816080083120313AD10BE10FB
:100950005225831203132A085E250B2D83120313DD
:10096000BD007E303D020319D22C7D303D020319BB
:10097000D72C3D0883120313BD0083120313AD145B
:10098000831203133D08B0008312031399008316EA
:100990000313981CC92C831203139030A000A00BE2
:1009A000CF2C08007D30BA245E30BA2408007D3098
:1009B000BA245D30BA240800831203133C08AD1436
:1009C000BA003F3083120313840083120313B8016B
:1009D000B901EB240B2D83120313BA0BF02C080082
:1009E000831203130008831203133906BB00F03986
:1009F000BB0EBB063B08F0393806B9003B0D3B0D7A
:100A0000B906E039B906BB0E3B06B80083120313E2
:100A1000040A8400EB2C83120313061683120313BB
:100A2000AD147E30BA24831203133F3083120313B4
:100A30008400831203133C08BA0083120313BA0B19
:100A4000222D2A2D831203130008AE2483120313D0
:100A5000840A1D2D831203133808AE248312031356
:100A60003908AE24332D7E30BA2483160313981C24
:100A7000372D83120313BE18A42CAD108312031359
:100A8000061208005225831203132A085E255225F8
:100A9000831203132A085E255225831203132A08A2
:100AA0005E250800831203132A0D2A0D2A1A013A23
:100AB000AA1A013AAA19013AAA00003483120313B0
:100AC000A200FF30A1003230A000A00B652D143031
:100AD000A000A10B652D6430A100A20B652D0800BC
:02400E00D430AC
:00000001FF
