:020000040000FA
:020000000528D1
:08000800262803179E019F0149
:100010000313831670308F000F1D0C28FF308500EE
:100020008601870120308C006730990000309A00EB
:100030009B15243098008312903098001A081A08F3
:100040008B170B1706129818342023288B130616CB
:10005000071487159A0198183420023037208C1A1B
:100060002628061287110900181218160800A20087
:10007000FF30A1003230A000A00B3C281430A000BB
:0E008000A10B3B286430A100A20B3C28080015
:02400E00D430AC
:00000001FF
